:03000000020CA34C
:0E000B000209DB50524F46494C452C002C0098
:10001900C0E0C0D0C000C001C002C033C032C0318E
:10002900C030E4F538F539F53AF53BF53C7A20E589
:1000390033A2E779047830E633F608D9FA790578F6
:1000490038E636D4F608D9F9DAE5D030D031D032ED
:10005900D033D002D001D000D0D0D0E022C0E0C04F
:10006900D0C000C001C002C03CC03BC03AC039C0CA
:10007900387A207905C3783CE613C0D030E70224EA
:10008900D030E30224FDF618D0D0D9EC79047833C6
:10009900E613F618D9FADADBD200E5387002C200A5
:1000A900D038D039D03AD03BD03CD002D001D000A2
:1000B900D0D0D0E022C0E0C0D0E5302534F530E51D
:1000C900313535F531E5323536F532E5333537F544
:1000D900339200D0D0D0E022C0E0C0D0C3E5309543
:1000E90034F530E5319535F531E5329536F532E5BA
:1000F900339537F5339200D0D0D0E022C0E0C0D09C
:10010900C3E5309534E5319535E5329536E53395D6
:10011900379200D0D0D0E022C0E0C0D0C3E53495FA
:1001290030E5359531E5369532E53795339200D08E
:10013900D0D0E022C0E0C0D0C200C3E53495307011
:1001490014E5359531700EE53695327008E5379529
:10015900337002D200D0D0D0E02212013D2000033A
:100169000201212212013D20000302010522C0E003
:10017900C0F0C0D0C000C001C002C003C004C005A7
:10018900E5308534F0A4F8A9F0E5318534F0A429E7
:10019900F9E435F0FAE5308535F0A429F9E5F03AC6
:1001A900FAE433FBE5328534F0A42AFAE5F03BFBA7
:1001B900E5318535F0A42AFAE5F03BFBE5308536D3
:1001C900F0A42AFAE5F03BFBE5338534F0A42BFBD8
:1001D900ACF07D00E5328535F0A42BFBE5F03CFC65
:1001E900E43DFDE5318536F0A42BFBE5F03CFCE46C
:1001F9003DFDE5308537F0A42BFBE5F03CFCE43D03
:10020900FDEC4DFCE5338535F0A445F04CFCE532B9
:100219008536F0A445F04CFCE5318537F0A445F06E
:100229004CFCE5338536F0A445F04CFCE5328537C6
:10023900F0A445F04CFCE5338537F0A445F04CFCBF
:100249008B338A3289318830D200BC0002C200D097
:1002590005D004D003D002D001D000D0D0D0F0D046
:10026900E022C0E0C0D0C000C001C002C003C00489
:10027900E5344535453645377005D2000202D6C208
:10028900007C20E4F8F9FAFBC3E53033F530E531B9
:1002990033F531E53233F532E53333F533E833F805
:1002A900E933F9EA33FAEB33FBC3E89534E99535D9
:1002B900EA9536EB95374013E89534F8E99535F921
:1002C900EA9536FAEB9537FB433001DCBBD004D015
:1002D90003D002D001D000D0D0D0E02285303485BF
:1002E900313585323685333722E530C534F530E589
:1002F90031C535F531E532C536F532E533C537F562
:0203090033229D
:10030B00C00078BE00000000D8FAD00022C000C0A8
:10031B0001793278DFD8FED9FADAF6D001D0002293
:10032B00D29112030BC29112030B22A2E79281A26C
:10033B00E69283A2E59285A2E4928712032BA2E3B5
:10034B009281A2E29283A2E19285A2E092871203AC
:10035B002B22D297020336C297020336C291C002F8
:10036B007A28120318D00274331203627433120307
:10037B006274321203627428120362740C120362E9
:10038B007401120362C0027A02120318D00222E433
:10039B0093600612035DA380F6224440448002035F
:1003AB0062C0E0E8C4540F443012035DE8540F44BC
:0703BB003012035DD0E022C7
:1003C200C0F9A4B0999282F880908883C6A1868EE3
:1003D2009003C2E53B453C6004D2EF8002C2EF309D
:1003E200FB2FE538540F93F591E538C4540F93F57C
:1003F20092E539540F93F593E539C4540F93F5946C
:10040200E53A540F93F58EE53AC4540F93F58F8075
:1004120024E53B540F93F591E53BC4540F93F592B9
:10042200E53C540F93F593E53CC4540F93F5947552
:100432008EFF758FFF227804C3E53833F538E5392E
:1004420033F539E53A33F53AE53B33F53BE53C33F1
:10045200F53CD8E45338F0EF540F4238227804C305
:10046200E53C13F53CE53B13F53BE53A13F53AE57C
:100472003913F539E53813F538D8E422780F794A7B
:100482007AFADAFED9FAD8F622E564B4000785389A
:100492005885395922B4010785385A85395B22B407
:1004A200020785385E85395F228538608539612289
:1004B200753A00753B00753C00E564B40007855849
:1004C2003885593922B40107855A38855B3922B4F7
:1004D2000207855E38855F39228560388561392259
:1004E200439B54439C01539CAB539DFE2220F90E27
:1004F20012047E20F90830F9FD12045FC322C29271
:10050200C294C296C2A0A2A282A482A682B05002C3
:10051200C32212047EA2A282A482A682B05002C387
:1005220022D292D294D296D2A030E803020603C21B
:100532009220A2097F0130A2FDD30206D520A40990
:100542007F0230A4FDD30206D520A6097F0330A680
:10055200FDD30206D520B0097F0A30B0FDD30206D2
:10056200D5D292C29420A2097F0430A2FDD3020602
:10057200D520A4097F0530A4FDD30206D520A60903
:100582007F0630A6FDD30206D520B0097F0B30B01E
:10059200FDD30206D5D294C29620A2097F0730A2CB
:1005A200FDD30206D520A4097F0830A4FDD302069C
:1005B200D520A6097F0930A6FDD30206D520B009B1
:1005C2007F0C30B0FDD30206D5D296C2A020A2097C
:1005D2007F0E30A2FDD30206D520A4097F0030A4ED
:1005E200FDD30206D520A6097F0F30A6FDD3020651
:1005F200D520B0097F0D30B0FDD30206D5D2A0C3FD
:1006020022C29220A2097F0A30A2FDD30206D5207F
:10061200A4097F0B30A4FDD30206D520A6097F0CC6
:1006220030A6FDD30206D520B0097F0D30B0FDD330
:100632000206D5D292C29420A2097F0330A2FDD332
:100642000206D520A4097F0630A4FDD30206D520D8
:10065200A6097F0930A6FDD30206D520B0097F0F77
:1006620030B0FDD30206D5D294C29620A2097F02F1
:1006720030A2FDD30206D520A4097F0530A4FDD304
:100682000206D520A6097F0830A6FDD30206D52092
:10069200B0097F0030B0FDD30206D5D296C2A020A9
:1006A200A2097F0130A2FDD30206D520A4097F044E
:1006B20030A4FDD30206D520A6097F0730A6FDD3BC
:1006C2000206D520B0097F0E30B0FDD30206D5D286
:1006D200A0C322EFB40A0B12048B7564001204B299
:1006E200C322B40B0B12048B7564011204B2C32231
:1006F200B40C0B12048B7564021204B2C322B40D43
:100702000B12048B7564031204B2C322B40E0512D9
:10071200045FC322B40F0DE4F538F539F53AF53B21
:05072200F53CC322229A
:10072700C2CA75C83075CBFF75CAF7D2CA75985259
:10073700223099FDC299F59922E493600612073891
:10074700A380F6229003C2E539C4540F93F594E5CC
:1007570039540F93F593E538C4540F93547FF592AA
:10076700E538540F93F59122C0E07401141203A5E4
:10077700D0E0745412035D743D12035DC030C03184
:10078700C032C033120019E539C4540F6007443032
:1007970012035D8006E539540F600BE539540F44A9
:1007A7003012035D8007E538C4540F600AE538C48A
:1007B700540F443012035DE538540F443012035D83
:1007C700742E12035D743012035DD033D032D031F2
:1007D700D03022E539C4540F4430120738E5395474
:1007E7000F4430120738E538C4540F443012073825
:1007F700742E120738E538540F4430120738740D39
:10080700120738740A12073822743012035D74789D
:1008170012035DE533C4540F2490D43440D412033B
:100827005DE533540F2490D43440D412035DE53290
:10083700C4540F2490D43440D412035DE532540FCE
:100847002490D43440D412035DE531C4540F24906E
:10085700D43440D412035DE531540F2490D434408E
:10086700D412035DE530C4540F2490D43440D4121D
:10087700035DE530540F2490D43440D412035D2235
:1008870090000E120740E559C4540F443012073840
:10089700E559540F4430120738E558C4540F443013
:1008A700120738E558540F4430120738742C1207D2
:1008B70038E55BC4540F4430120738E55B540F44E6
:1008C70030120738E55AC4540F4430120738E55A36
:1008D700540F4430120738742C120738E55FC4549C
:1008E7000F4430120738E55F540F4430120738E5DC
:1008F7005EC4540F4430120738E55E540F4430127B
:100907000738742C120738E561C4540F44301207B6
:1009170038E561540F4430120738E560C4540F447A
:1009270030120738E560540F4430120738740D123F
:080937000738740A1207382288
:10093F00E3FBFAA7FBFAE3FBFAA7FBFAE3FBFA41A7
:10094F00FDFAA7FBFAD0FAFAD6F9FA0000FA00007E
:10095F00FAA2F5FAC5F7FAD6F9FA82FAFA0000FA0E
:10096F000000FAC5F7FA7BF9FA82FAFAD0FAFA0020
:10097F0000FA0000FAC5F7FAD205D20675320090D8
:10098F00093F753300E493F531A3E493F530A3E405
:10099F0093F533A3C002AA33120318D0020532E530
:0909AF0032B418E1C205C20622AF
:1009B800546D706572617475726520546573740046
:1009C800E58954F04401F589758CF5758A68D2A9D2
:1009D800D28C2220060CC28C758CF5758A68D28C54
:1009E800800AC28C85308C85318AD28C300505B25C
:1009F80084020A200565E565B4FA1DD2030566750B
:100A08006500E566B4041175660005670568E56864
:100A1800B43C05056975680032C0F9A4B0999282A2
:100A2800F88090900A21E8C4540F93F592E8540F87
:100A380093F59122900A21E8C4540F93F594E85451
:100A48000F93F59322900A21E8C4540F93F58FE889
:100A5800540F93F58E2275F06484F9E5F075F00A69
:100A680084C454F045F0F822855838855939753AC8
:100A780000753B00120066753482753500753600C6
:100A88007537001201053000157530827531007513
:100A98003200753300120019853858853959855840
:100AA80038855939753A00753B001200667534AAC5
:100AB800753500753600753700120121300015753F
:100AC80030AA753100753200753300120019853867
:100AD80058853959855A38855B39753A00753B0010
:100AE80012006675343C753500753600753700128E
:100AF800010530001575303C7531007532007533CD
:100B08000012001985385A85395B855A38855B3952
:100B1800753A00753B0012006675347875350075B6
:100B2800360075370012012130001575307875319F
:100B38000075320075330012001985385A85395B03
:100B4800855E38855F39753A00753B001200667519
:100B580034E675350075360075370012010530002A
:100B6800157530E6753100753200753300120019BD
:100B780085385E85395F855E38855F39753A0075D9
:100B88003B001200667534F0753500753600753710
:100B9800001201213000157530F0753100753200F2
:100BA80075330012001985385E85395F8560388590
:100BB8006139753A00753B0012006675341E75354B
:100BC8000075360075370012010530001575301EA6
:100BD800753100753200753300120019853860854B
:100BE8003961856038856139753A00753B001200B6
:100BF8006675342D7535007536007537001201217C
:100C080030001575302D75310075320075330012BE
:100C1800001985386085396122C2AF1209C81207E8
:100C28002712036775817F75E800759500756A005E
:100C3800C280C200C201D202C203D204C205C206E7
:100C4800756900756800756600756CE0756B3675BA
:100C58005800755900755A00755B00755E00755F20
:100C68000075600075610075520075530075540079
:100C7800755500754600754700754800754900753B
:100C88004200754300754400754500756400C2AFA5
:100C98001204B21204E2D2AFD2AF22759ABB759B8E
:100CA80082120C21759AAA759B82120367C0E074A0
:100CB80001141203A7D0E0C083C082C0E09009B835
:100CC80012039AD0E0D082D0839009B812074074FA
:100CD8000D120738740A12073875A18012047E02B3
:100CE8000D2AC2AF85673075310075320075330043
:100CF800120019A838120A2B856830753100753230
:100D080000753300120019A838120A3C856930753D
:100D18003100753200753300120019A838120A4DD7
:100D2800D2AF2004053003028003020E47C203C27B
:100D3800AF75A10075330075320085A33185A230E7
:100D48007534887535137536007537001201777557
:100D5800340075351075360075370012026B853012
:100D68004A85314B85324C85334D75A10175330069
:100D780075320085A33185A23075348875351375B1
:100D880036007537001201777534007535107536E1
:100D98000075370012026B75340A75350075360018
:100DA80075370012026B753411753501753600758B
:100DB80037001200E185304E85314F85325085333A
:100DC80051854A30854B31854C32854D3375341009
:100DD80075352775360075370012017775340C752F
:100DE800353075360075370012026B853034853121
:100DF80035853236853337854E30854F31855032CB
:100E0800855133C034C035C036C03775340A75359E
:100E180000753600753700120177D037D036D035D7
:100E2800D0341200BE853052853153853254853313
:100E38005512001912074B12076F1207DAD2AF20AA
:100E4800040F20820C12047E2082063082FD756A0F
:100E580000300213C202C2AF756700D2AFD20512CA
:100E6800047E12047EC20575E800E56AB4000280BB
:100E780003020EBBD2E8C280D204C2AF1204EF1242
:100E880003D25003120438D2AF20E81120820B128B
:100E9800047E2082053082FD8003021152C2AF1207
:100EA8000A70120887D2AF756400D202C204056ABC
:100EB800021152E56AB401028003020F60D2E9D23E
:100EC80080C2AF75303C75310075320075330085CE
:100ED800673475350075360075370012012130000A
:100EE80023C2008552308553318554328555337578
:100EF800343275350075360075370012010530003B
:100F080003756A00C200855838855939753A0075E5
:100F18003B00753C0012006675340A75350075365D
:100F280000753700120177853034853135853236C2
:100F3800853337855230855331855432855533C2D0
:100F480000120121D2AF20E908300002800302110B
:100F580052D202056A021152E56AB4020280030203
:100F68001011D2EAC2AF855A38855B39753A0075D7
:100F78003B00753C0012006685305C85315D75303C
:100F880014753100753200753300855A34855B3528
:100F9800753600753700120177753464753500753C
:100FA800360075370012026B8530568531578567D4
:100FB80030753100753200753300855634855735E4
:100FC800753600753700C200120121D2AF30000417
:100FD800C2808002D280C2AF856730753100753219
:100FE80000753300855C34855D35753600753700CE
:100FF800C200120121D2AF20EA08300002800302A9
:101008001152D202056A021152E56AB40358D2EBB2
:10101800D280C2AF855E38855F39753A00753B006E
:10102800753C0012006675340A7535007536007512
:10103800370012017785303485313585323685336E
:1010480037855234855335855436855537C2001255
:101058000121D2AF20EB082000028003021152D2F6
:1010680002056A021152E56AB40402800302111AE9
:10107800D2ECC2AF856038856139753A00753B009E
:10108800753C0012006685306285316375301475D1
:1010980031007532007533008562348563357536E5
:1010A80000753700120177753464753500753600A0
:1010B80075370012026B8530568531578567307554
:1010C80031007532007533008556348557357536CD
:1010D80000753700C200120121D2AF300004C2806F
:1010E8008002D280C2AF8562308563317532007567
:1010F8003300856734753500753600753700C200D2
:10110800120121D2AF20EC0320003FD202056A026F
:101118001152E56AB40533D2EDC280C2AF855230B0
:101128008553318554328555337534587535027574
:101138003600753700C200120105D2AF20ED03302A
:0D1148000008D202756A00120987020CE748
:00000001FF
