:03000000020F5D8F
:03000B00020B2DB8
:04002B00020B4E0076
:10002F00C0E0C0D0C000C001C002C033C032C03178
:10003F00C030E4F538F539F53AF53BF53C7A20E573
:10004F0033A2E779047830E633F608D9FA790578E0
:10005F0038E636D4F608D9F9DAE5D030D031D032D7
:10006F00D033D002D001D000D0D0D0E022C0E0C039
:10007F00D0C000C001C002C03CC03BC03AC039C0B4
:10008F00387A207905C3783CE613C0D030E70224D4
:10009F00D030E30224FDF618D0D0D9EC79047833B0
:1000AF00E613F618D9FADADBD200E5387002C2008F
:1000BF00D038D039D03AD03BD03CD002D001D0008C
:1000CF00D0D0D0E022C0E0C0D0E5302534F530E507
:1000DF00313535F531E5323536F532E5333537F52E
:1000EF00339200D0D0D0E022C0E0C0D0C3E530952D
:1000FF0034F530E5319535F531E5329536F532E5A4
:10010F00339537F5339200D0D0D0E022C0E0C0D085
:10011F00C3E5309534E5319535E5329536E53395C0
:10012F00379200D0D0D0E022C0E0C0D0C3E53495E4
:10013F0030E5359531E5369532E53795339200D078
:10014F00D0D0E022C0E0C0D0C200C3E534953070FB
:10015F0014E5359531700EE53695327008E5379513
:10016F00337002D200D0D0D0E0221201532000030E
:10017F000201372212015320000302011B22C0E0AB
:10018F00C0F0C0D0C000C001C002C003C004C00591
:10019F00E5308534F0A4F8A9F0E5318534F0A429D1
:1001AF00F9E435F0FAE5308535F0A429F9E5F03AB0
:1001BF00FAE433FBE5328534F0A42AFAE5F03BFB91
:1001CF00E5318535F0A42AFAE5F03BFBE5308536BD
:1001DF00F0A42AFAE5F03BFBE5338534F0A42BFBC2
:1001EF00ACF07D00E5328535F0A42BFBE5F03CFC4F
:1001FF00E43DFDE5318536F0A42BFBE5F03CFCE456
:10020F003DFDE5308537F0A42BFBE5F03CFCE43DEC
:10021F00FDEC4DFCE5338535F0A445F04CFCE532A3
:10022F008536F0A445F04CFCE5318537F0A445F058
:10023F004CFCE5338536F0A445F04CFCE5328537B0
:10024F00F0A445F04CFCE5338537F0A445F04CFCA9
:10025F008B338A3289318830D200BC0002C200D081
:10026F0005D004D003D002D001D000D0D0D0F0D030
:10027F00E022C0E0C0D0C000C001C002C003C00473
:10028F00E5344535453645377005D2000202ECC2DC
:10029F00007C20E4F8F9FAFBC3E53033F530E531A3
:1002AF0033F531E53233F532E53333F533E833F8EF
:1002BF00E933F9EA33FAEB33FBC3E89534E99535C3
:1002CF00EA9536EB95374013E89534F8E99535F90B
:1002DF00EA9536FAEB9537FB433001DCBBD004D0FF
:1002EF0003D002D001D000D0D0D0E02285303485A9
:1002FF00313585323685333722E530C534F530E573
:10030F0031C535F531E532C536F532E533C537F54B
:02031F00332287
:10032100C00078BE00000000D8FAD00022C000C092
:1003310001793278DFD8FED9FADAF6D001D000227D
:10034100D291120321C29112032122A2E79281A22A
:10035100E69283A2E59285A2E49287120341A2E389
:100361009281A2E29283A2E19285A2E09287120396
:100371004122D29702034CC29702034CC291C002A0
:100381007A2812032ED002743312037874331203C5
:100391007874321203787428120378740C1203787B
:1003A1007401120378C0027A0212032ED00222E4F1
:1003B100936006120373A380F62244404480020333
:1003C10078C0E0E8C4540F4430120373E8540F447A
:0703D10030120373D0E0229B
:1003D800C0F9A4B0999282F880908883C6A1868ECD
:1003E8009003D8E53B453C6004D2EF8002C2EF3071
:1003F800FB2FE538540F93F591E538C4540F93F566
:1004080092E539540F93F593E539C4540F93F59455
:10041800E53A540F93F58EE53AC4540F93F58F805F
:1004280024E53B540F93F591E53BC4540F93F592A3
:10043800E53C540F93F593E53CC4540F93F594753C
:100448008EFF758FFF227804C3E53833F538E53918
:1004580033F539E53A33F53AE53B33F53BE53C33DB
:10046800F53CD8E45338F0EF540F4238227804C3EF
:10047800E53C13F53CE53B13F53BE53A13F53AE566
:100488003913F539E53813F538D8E422780F794A65
:100498007AFADAFED9FAD8F622E564B40007853884
:1004A8005885395922B4010785385A85395B22B4F1
:1004B800020785385E85395F228538608539612273
:1004C800753A00753B00753C00E564B40007855833
:1004D8003885593922B40107855A38855B3922B4E1
:1004E8000207855E38855F39228560388561392243
:1004F800439B54439C01539CAB539DFE2220F90E11
:1005080012049420F90830F9FD120475C322C2922E
:10051800C294C296C2A0A2A282A482A682B05002AD
:10052800C322120494A2A282A482A682B05002C35B
:1005380022D292D294D296D2A030E803020619C2EF
:100548009220A2097F0130A2FDD30206EB20A40964
:100558007F0230A4FDD30206EB20A6097F0330A654
:10056800FDD30206EB20B0097F0A30B0FDD30206A6
:10057800EBD292C29420A2097F0430A2FDD30206D6
:10058800EB20A4097F0530A4FDD30206EB20A609C1
:100598007F0630A6FDD30206EB20B0097F0B30B0F2
:1005A800FDD30206EBD294C29620A2097F0730A29F
:1005B800FDD30206EB20A4097F0830A4FDD3020670
:1005C800EB20A6097F0930A6FDD30206EB20B0096F
:1005D8007F0C30B0FDD30206EBD296C2A020A20950
:1005E8007F0E30A2FDD30206EB20A4097F0030A4C1
:1005F800FDD30206EB20A6097F0F30A6FDD3020625
:10060800EB20B0097F0D30B0FDD30206EBD2A0C3BA
:1006180022C29220A2097F0A30A2FDD30206EB2053
:10062800A4097F0B30A4FDD30206EB20A6097F0C9A
:1006380030A6FDD30206EB20B0097F0D30B0FDD304
:100648000206EBD292C29420A2097F0330A2FDD306
:100658000206EB20A4097F0630A4FDD30206EB2096
:10066800A6097F0930A6FDD30206EB20B0097F0F4B
:1006780030B0FDD30206EBD294C29620A2097F02C5
:1006880030A2FDD30206EB20A4097F0530A4FDD3D8
:100698000206EB20A6097F0830A6FDD30206EB2050
:1006A800B0097F0030B0FDD30206EBD296C2A0207D
:1006B800A2097F0130A2FDD30206EB20A4097F0422
:1006C80030A4FDD30206EB20A6097F0730A6FDD390
:1006D8000206EB20B0097F0E30B0FDD30206EBD244
:1006E800A0C322EFB40A0B1204A17564001204C857
:1006F800C322B40B0B1204A17564011204C8C322EF
:10070800B40C0B1204A17564021204C8C322B40D00
:100718000B1204A17564031204C8C322B40E051297
:100728000475C322B40F0DE4F538F539F53AF53BF5
:05073800F53CC3222284
:10073D00C2CA75C83075CBFF75CAF7D2CA75985243
:10074D00223099FDC299F59922E493600612074E65
:10075D00A380F6229003D8E539C4540F93F594E5A0
:10076D0039540F93F593E538C4540F93547FF59294
:10077D00E538540F93F59122C0E07401141203BBB8
:10078D00D0E07454120373743D120373C030C03142
:10079D00C032C03312002FE539C4540F6007443006
:1007AD001203738006E539540F600BE539540F447D
:1007BD00301203738007E538C4540F600AE538C45E
:1007CD00540F4430120373E538540F443012037341
:1007DD00742E1203737430120373D033D032D031B0
:1007ED00D03022E539C4540F443012074EE5395448
:1007FD000F443012074EE538C4540F443012074EE3
:10080D00742E12074EE538540F443012074E740DF6
:10081D0012074E740A12074E227430120373747845
:10082D00120373E533C4540F2490D43440D412030F
:10083D0073E533540F2490D43440D4120373E5324E
:10084D00C4540F2490D43440D4120373E532540FA2
:10085D002490D43440D4120373E531C4540F249042
:10086D00D43440D4120373E531540F2490D4344062
:10087D00D4120373E530C4540F2490D43440D412F1
:10088D000373E530540F2490D43440D412037322F3
:10089D0090002E120756E559C4540F443012074EDE
:1008AD00E559540F443012074EE558C4540F4430E7
:1008BD0012074EE558540F443012074E742C120790
:1008CD004EE55BC4540F443012074EE55B540F44A4
:1008DD003012074EE55AC4540F443012074EE55AF4
:1008ED00540F443012074E742C12074EE55FC4545A
:1008FD000F443012074EE55F540F443012074EE59A
:10090D005EC4540F443012074EE55E540F4430124E
:10091D00074E742C12074EE561C4540F4430120774
:10092D004EE561540F443012074EE560C4540F4438
:10093D003012074EE560540F443012074E740D12FD
:08094D00074E740A12074E2246
:10095500C0E0C000C001E564600CB40102802FB4A2
:10096500020280528078C0E07401141203BDD0E009
:10097500C083C082C0E0900AF01203B0D0E0D082FC
:10098500D083A8591203C2A8581203C28076C0E0CA
:100995007401141203BDD0E0C083C082C0E0900A88
:1009A500F41203B0D0E0D082D083A85B1203C2A8B2
:1009B5005A1203C2804EC0E07401141203BDD0E088
:1009C500C083C082C0E0900AF81203B0D0E0D082A4
:1009D500D083A85F1203C2A85E1203C28026C0E0BE
:1009E5007401141203BDD0E0C083C082C0E0900A38
:1009F500FC1203B0D0E0D082D083A8611203C2A854
:100A0500601203C2D001D000D0E022C0E0C0F0C027
:100A150000C0E07401141203BBD0E0C083C082C0E3
:100A2500E0900B001203B0D0E0D082D083E56B12CA
:100A35000BB21203C2C0E0743A120373D0E0E56A48
:100A4500120BB21203C2D000D0F0D0E022C0E0C039
:100A5500F0C000C001C007C0E07401141203BBD090
:100A6500E0C083C082C0E0900B051203B0D0E0D097
:100A750082D083E56975F03C84AFF0120BB21203A6
:100A8500C2C0E0743A120373D0E0EF120BB2120346
:100A9500C2D007D001D000D0F0D0E022C0E0C0F035
:100AA500C000C001C007C0E07401141203BBD0E050
:100AB500C0E07453120373D0E0C0E07420120373D6
:100AC500D0E0E56975F03C84AFF0120BB21203C2B9
:100AD500C0E0743A120373D0E0EF120BB21203C2F6
:100AE500D007D001D000D0F0D0E022413A2000421A
:100AF5003A2000433A2000443A2000546F74200005
:050B05005374202000E4
:100B0A00546D7065726174757265205465737400F2
:100B1A00E58954F04401F58985668C85658AD2A9F0
:100B2A00D28C22C28C85668C85658AD28CB284323C
:100B3A0075C80075CDF575CC2775CBF575CA27D262
:100B4A00ADD2CA22C2CF0567E567B4FA1DD2030542
:100B5A0068756700E568B404117568000569056A77
:100B6A00E56AB43C05056B756A0032C0F9A4B09910
:100B7A009282F88090900B75E8C4540F93F592E82E
:100B8A00540F93F59122900B75E8C4540F93F59482
:100B9A00E8540F93F59322900B75E8C4540F93F51C
:100BAA008FE8540F93F58E2275F06484F9E5F07599
:100BBA00F00A84C454F045F0F822C2AF75A100755A
:100BCA00330075320085A33185A2307534887535B6
:100BDA001375360075370012018D7534007535109E
:100BEA0075360075370012028185304A85314B858A
:100BFA00324C85334D75A10175330075320085A3DA
:100C0A003185A2307534887535137536007537000D
:100C1A0012018D753400753510753600753700125E
:100C2A00028175340A75350075360075370012026F
:100C3A00817534117535017536007537001200F764
:100C4A0085304E85314F853250853351854A3085FE
:100C5A004B31854C32854D337534107535277536D1
:100C6A000075370012018D75340C753530753600F4
:100C7A0075370012028185303485313585323685E3
:100C8A003337854E30854F31855032855133C034E4
:100C9A00C035C036C03775340A75350075360075EB
:100CAA00370012018DD037D036D035D0341200D467
:100CBA0085305285315385325485335512002F20A1
:100CCA000403120761E56C6016B406028011300550
:100CDA0008120785120AA18006120955120A10D2B3
:100CEA00AF22855838855939753A00753B0012008C
:100CFA007C75348275350075360075370012011B14
:100D0A0030001B7530827531007532007533001260
:100D1A00002F853858853959755A00755B008558F2
:100D2A0038855939753A00753B0012007C7534AA2A
:100D3A0075350075360075370012013730001B759E
:100D4A0030AA75310075320075330012002F8538CC
:100D5A0058853959755A00755B00855A38855B394B
:100D6A00753A00753B0012007C75343C7535007588
:100D7A00360075370012011B30001B75303C753187
:100D8A000075320075330012002F85385A85395B99
:100D9A00755C00755D00855A38855B39753A007552
:100DAA003B0012007C75347875350075360075374E
:100DBA000012013730001B7530787531007532002A
:100DCA0075330012002F85385A85395B755C0075BA
:100DDA005D00855E38855F39753A00753B00120003
:100DEA007C7534E675350075360075370012011BBF
:100DFA0030001B7530E6753100753200753300120C
:100E0A00002F85385E85395F756000756100855EE3
:100E1A0038855F39753A00753B0012007C7534F0ED
:100E2A0075350075360075370012013730001B75AD
:100E3A0030F075310075320075330012002F853895
:100E4A005E85395F75600075610085603885613936
:100E5A00753A00753B0012007C75341E75350075B5
:100E6A00360075370012011B30001B75301E7531B4
:100E7A000075320075330012002F8538608539619C
:100E8A00756200756300856038856139753A007549
:100E9A003B0012007C75342D7535007536007537A8
:100EAA000012013730001B75302D75310075320084
:100EBA0075330012002F85386085396175620075B7
:100ECA00630022C2AF120B3A12037D75817F75E867
:100EDA0000759500756C00C280C200C201D202C2C0
:100EEA0003D204C205756B00756A00756800753017
:100EFA002C75310175320075330012002F85385870
:100F0A00853959755A00755B00755E00755F007505
:100F1A00600075610075520075530075540075556F
:100F2A00007546007547007548007549007542000E
:100F3A00754300754400754500756400C2AF12041C
:100F4A00C81204F8D2AF7566807565D8C28CC2A97A
:100F5A00D2AF22759AAB759B82120ECD759AAA757D
:100F6A009B8212037DC0E07401141203BDD0E0C05D
:100F7A0083C082C0E0900B0A1203B0D0E0D082D0C6
:100F8A0083900B0A120756740D12074E740A120741
:100F9A004E75A180120494120A10020FE7C2AF859F
:100FAA00693075310075320075330012002FA83888
:100FBA00120B7F856A307531007532007533001265
:100FCA00002FA838120B90856B30753100753200EE
:100FDA0075330012002FA838120BA1D2AF300305C7
:100FEA00C203120BC420040F20820C120494208224
:100FFA00063082FD756C00300209C202C2AF756903
:10100A0000D2AF75E800E56C6013B40602800E20CA
:10101A00950B1204942095053095FDB205E56CB444
:10102A000002800302106DD204C2AF12050512033A
:10103A00E8500312044ED2AFD2E8C28020E8112051
:10104A00820B1204942082053082FD800302130170
:10105A00C2AF120CECD2AF756400D202C204056CA6
:10106A00021301E56CB401028003021112D2E9D223
:10107A0080C2AF75303C753100753200753300851A
:10108A00693475350075360075370012013730003E
:10109A0023C20085523085533185543285553375C4
:1010AA00343275350075360075370012011B300071
:1010BA0003756C00C200855838855939753A007530
:1010CA003B00753C0012007C75340A753500753694
:1010DA000075370012018D853034853135853236F9
:1010EA00853337855230855331855432855533C21D
:1010FA0000120137D2AF20E9083000028003021340
:10110A0001D202056C021301E56CB40202800302EB
:10111A0011C3D2EAC2AF855A38855B39753A007570
:10112A003B00753C0012007C85305C85315D753072
:10113A0014753100753200753300855A34855B3574
:10114A0075360075370012018D7534647535007572
:10115A003600753700120281853056853157856908
:10116A003075310075320075330085563485573530
:10117A00753600753700C200120137D2AF3000044D
:10118A00D2808002C280C2AF856930753100753263
:10119A0000753300855C34855D357536007537001A
:1011AA00C200120137D2AF20EA08300002800302DF
:1011BA001301D202056C021301E56CB40358D2EB99
:1011CA00D280C2AF855E38855F39753A00753B00BB
:1011DA00753C0012007C75340A7535007536007549
:1011EA00370012018D8530348531358532368533A5
:1011FA0037855234855335855436855537C20012A2
:10120A000137D2AF20EB082000028003021301D27B
:10121A0002056C021301E56CB4040280030212CCCD
:10122A00D2ECC2AF856038856139753A00753B00EA
:10123A00753C0012007C8530628531637530147507
:10124A003100753200753300856234856335753631
:10125A000075370012018D753464753500753600D6
:10126A007537001202818530568531578569307588
:10127A003100753200753300855634855735753619
:10128A0000753700C200120137D2AF300004D28095
:10129A008002C280C2AF85623085633175320075C3
:1012AA003300856934753500753600753700C2001C
:1012BA00120137D2AF20EC0320003CD202056C02A7
:1012CA001301E56CB40530D2EDC280C2AF8552304D
:1012DA008553318554328555337534DC753500753F
:1012EA003600753700C20012011BD2AF20ED033061
:0A12FA000005D202756C00020FA47B
:00000001FF
