:03000000020DCD21
:0E000B00020AFB50524F46494C452C002C0077
:10001900C0E0C0D0C000C001C002C033C032C0318E
:10002900C030E4F538F539F53AF53BF53C7A20E589
:1000390033A2E779047830E633F608D9FA790578F6
:1000490038E636D4F608D9F9DAE5D030D031D032ED
:10005900D033D002D001D000D0D0D0E022C0E0C04F
:10006900D0C000C001C002C03CC03BC03AC039C0CA
:10007900387A207905C3783CE613C0D030E70224EA
:10008900D030E30224FDF618D0D0D9EC79047833C6
:10009900E613F618D9FADADBD200E5387002C200A5
:1000A900D038D039D03AD03BD03CD002D001D000A2
:1000B900D0D0D0E022C0E0C0D0E5302534F530E51D
:1000C900313535F531E5323536F532E5333537F544
:1000D900339200D0D0D0E022C0E0C0D0C3E5309543
:1000E90034F530E5319535F531E5329536F532E5BA
:1000F900339537F5339200D0D0D0E022C0E0C0D09C
:10010900C3E5309534E5319535E5329536E53395D6
:10011900379200D0D0D0E022C0E0C0D0C3E53495FA
:1001290030E5359531E5369532E53795339200D08E
:10013900D0D0E022C0E0C0D0C200C3E53495307011
:1001490014E5359531700EE53695327008E5379529
:10015900337002D200D0D0D0E02212013D2000033A
:100169000201212212013D20000302010522C0E003
:10017900C0F0C0D0C000C001C002C003C004C005A7
:10018900E5308534F0A4F8A9F0E5318534F0A429E7
:10019900F9E435F0FAE5308535F0A429F9E5F03AC6
:1001A900FAE433FBE5328534F0A42AFAE5F03BFBA7
:1001B900E5318535F0A42AFAE5F03BFBE5308536D3
:1001C900F0A42AFAE5F03BFBE5338534F0A42BFBD8
:1001D900ACF07D00E5328535F0A42BFBE5F03CFC65
:1001E900E43DFDE5318536F0A42BFBE5F03CFCE46C
:1001F9003DFDE5308537F0A42BFBE5F03CFCE43D03
:10020900FDEC4DFCE5338535F0A445F04CFCE532B9
:100219008536F0A445F04CFCE5318537F0A445F06E
:100229004CFCE5338536F0A445F04CFCE5328537C6
:10023900F0A445F04CFCE5338537F0A445F04CFCBF
:100249008B338A3289318830D200BC0002C200D097
:1002590005D004D003D002D001D000D0D0D0F0D046
:10026900E022C0E0C0D0C000C001C002C003C00489
:10027900E5344535453645377005D2000202D6C208
:10028900007C20E4F8F9FAFBC3E53033F530E531B9
:1002990033F531E53233F532E53333F533E833F805
:1002A900E933F9EA33FAEB33FBC3E89534E99535D9
:1002B900EA9536EB95374013E89534F8E99535F921
:1002C900EA9536FAEB9537FB433001DCBBD004D015
:1002D90003D002D001D000D0D0D0E02285303485BF
:1002E900313585323685333722E530C534F530E589
:1002F90031C535F531E532C536F532E533C537F562
:0203090033229D
:10030B00C00078BE00000000D8FAD00022C000C0A8
:10031B0001793278DFD8FED9FADAF6D001D0002293
:10032B00D29112030BC29112030B22A2E79281A26C
:10033B00E69283A2E59285A2E4928712032BA2E3B5
:10034B009281A2E29283A2E19285A2E092871203AC
:10035B002B22D297020336C297020336C291C002F8
:10036B007A28120318D00274331203627433120307
:10037B006274321203627428120362740C120362E9
:10038B007401120362C0027A02120318D00222E433
:10039B0093600612035DA380F6224440448002035F
:1003AB0062C0E0E8C4540F443012035DE8540F44BC
:0703BB003012035DD0E022C7
:1003C200C0F9A4B0999282F880908883C6A1868EE3
:1003D2009003C2E53B453C6004D2EF8002C2EF309D
:1003E200FB2FE538540F93F591E538C4540F93F57C
:1003F20092E539540F93F593E539C4540F93F5946C
:10040200E53A540F93F58EE53AC4540F93F58F8075
:1004120024E53B540F93F591E53BC4540F93F592B9
:10042200E53C540F93F593E53CC4540F93F5947552
:100432008EFF758FFF227804C3E53833F538E5392E
:1004420033F539E53A33F53AE53B33F53BE53C33F1
:10045200F53CD8E45338F0EF540F4238227804C305
:10046200E53C13F53CE53B13F53BE53A13F53AE57C
:100472003913F539E53813F538D8E422780F794A7B
:100482007AFADAFED9FAD8F622E564B4000785389A
:100492005885395922B4010785385A85395B22B407
:1004A200020785385E85395F228538608539612289
:1004B200753A00753B00753C00E564B40007855849
:1004C2003885593922B40107855A38855B3922B4F7
:1004D2000207855E38855F39228560388561392259
:1004E200439B54439C01539CAB539DFE2220F90E27
:1004F20012047E20F90830F9FD12045FC322C29271
:10050200C294C296C2A0A2A282A482A682B05002C3
:10051200C32212047EA2A282A482A682B05002C387
:1005220022D292D294D296D2A030E803020603C21B
:100532009220A2097F0130A2FDD30206D520A40990
:100542007F0230A4FDD30206D520A6097F0330A680
:10055200FDD30206D520B0097F0A30B0FDD30206D2
:10056200D5D292C29420A2097F0430A2FDD3020602
:10057200D520A4097F0530A4FDD30206D520A60903
:100582007F0630A6FDD30206D520B0097F0B30B01E
:10059200FDD30206D5D294C29620A2097F0730A2CB
:1005A200FDD30206D520A4097F0830A4FDD302069C
:1005B200D520A6097F0930A6FDD30206D520B009B1
:1005C2007F0C30B0FDD30206D5D296C2A020A2097C
:1005D2007F0E30A2FDD30206D520A4097F0030A4ED
:1005E200FDD30206D520A6097F0F30A6FDD3020651
:1005F200D520B0097F0D30B0FDD30206D5D2A0C3FD
:1006020022C29220A2097F0A30A2FDD30206D5207F
:10061200A4097F0B30A4FDD30206D520A6097F0CC6
:1006220030A6FDD30206D520B0097F0D30B0FDD330
:100632000206D5D292C29420A2097F0330A2FDD332
:100642000206D520A4097F0630A4FDD30206D520D8
:10065200A6097F0930A6FDD30206D520B0097F0F77
:1006620030B0FDD30206D5D294C29620A2097F02F1
:1006720030A2FDD30206D520A4097F0530A4FDD304
:100682000206D520A6097F0830A6FDD30206D52092
:10069200B0097F0030B0FDD30206D5D296C2A020A9
:1006A200A2097F0130A2FDD30206D520A4097F044E
:1006B20030A4FDD30206D520A6097F0730A6FDD3BC
:1006C2000206D520B0097F0E30B0FDD30206D5D286
:1006D200A0C322EFB40A0B12048B7564001204B299
:1006E200C322B40B0B12048B7564011204B2C32231
:1006F200B40C0B12048B7564021204B2C322B40D43
:100702000B12048B7564031204B2C322B40E0512D9
:10071200045FC322B40F0DE4F538F539F53AF53B21
:05072200F53CC322229A
:10072700C2CA75C83075CBFF75CAF7D2CA75985259
:10073700223099FDC299F59922E493600612073891
:10074700A380F6229003C2E539C4540F93F594E5CC
:1007570039540F93F593E538C4540F93547FF592AA
:10076700E538540F93F59122C0E07401141203A5E4
:10077700D0E0745412035D743D12035DC030C03184
:10078700C032C033120019E539C4540F6007443032
:1007970012035D8006E539540F600BE539540F44A9
:1007A7003012035D8007E538C4540F600AE538C48A
:1007B700540F443012035DE538540F443012035D83
:1007C700742E12035D743012035DD033D032D031F2
:1007D700D03022E539C4540F4430120738E5395474
:1007E7000F4430120738E538C4540F443012073825
:1007F700742E120738E538540F4430120738740D39
:10080700120738740A12073822743012035D74789D
:1008170012035DE533C4540F2490D43440D412033B
:100827005DE533540F2490D43440D412035DE53290
:10083700C4540F2490D43440D412035DE532540FCE
:100847002490D43440D412035DE531C4540F24906E
:10085700D43440D412035DE531540F2490D434408E
:10086700D412035DE530C4540F2490D43440D4121D
:10087700035DE530540F2490D43440D412035D2235
:1008870090000E120740E559C4540F443012073840
:10089700E559540F4430120738E558C4540F443013
:1008A700120738E558540F4430120738742C1207D2
:1008B70038E55BC4540F4430120738E55B540F44E6
:1008C70030120738E55AC4540F4430120738E55A36
:1008D700540F4430120738742C120738E55FC4549C
:1008E7000F4430120738E55F540F4430120738E5DC
:1008F7005EC4540F4430120738E55E540F4430127B
:100907000738742C120738E561C4540F44301207B6
:1009170038E561540F4430120738E560C4540F447A
:1009270030120738E560540F4430120738740D123F
:080937000738740A1207382288
:10093F007BF9FAD6F9FAE3FBFA0000FA0000FA00A5
:10094F0000FAD6F9FAE3FBFA0000FA0000FAE3FB2B
:10095F00FA61FBFAD0FAFA82FAFA61FBFAD0FAFAE4
:10096F0082FAFAD6F9FAE3FBFA0000FA0000FA006D
:10097F0000FAD6F9FAE3FBFA0000FA0000FA0000D9
:10098F00FA0000FAE3FBFA61FBFAD0FAFA82FAFAFC
:10099F0061FBFAD0FAFA82FAFAD6F9FAD6F9FA0026
:1009AF0000FA0000FAEBFCFA0000FA0000FA8AFCE9
:1009BF00FA0000FA0000FAE3FBFA1DFCFA8AFCFACF
:1009CF000000FA0000FA61FBFA0000FA0000FA1FBB
:1009DF00FBFA0000FA0000FAE3FBFA61FBFAD0FA27
:1009EF00FA82FAFA61FBFAD0FAFA82FAFAD6F9FA2F
:1009FF0082FAFA82FAFA82FAFAD0FAFA61FBFA006C
:100A0F0000FA0000FA0000FA0000FAE3FBFAA7FB75
:100A1F00FAE3FBFAA7FBFAE3FBFA41FDFA61FBFAF3
:100A2F00D0FAFAD6F9FA0000FA0000FAA2F5FAC5E0
:100A3F00F7FAD6F9FA82FAFA0000FA0000FAC5F7C7
:100A4F00FA7BF9FA82FAFAD0FAFA0000FA0000FA01
:100A5F00C5F7FAE3FBFAA7FBFAE3FBFAA7FBFAE306
:100A6F00FBFA41FDFAA7FBFAD0FAFAD6F9FA000021
:100A7F00FA0000FAA2F5FAC5F7FAD6F9FA82FAFAED
:100A8F000000FA0000FAC5F7FAD0FAFA82FAFAD69D
:100A9F00F9FA0000FA0000FAD205D206753200907A
:100AAF00093F753300E493F531A3E493F530A3E4E4
:100ABF0093F533A3C002AA33120318D0020532E50F
:090ACF0032B475E1C205C2062231
:100AD800546D706572617475726520546573740025
:100AE800E58954F04401F589758CF5758A68D2A9B1
:100AF800D28C2220060CC28C758CF5758A68D28C33
:100B0800800AC28C85308C85318AD28C300505B23A
:100B180084020B4A0565E565B4FA27D203056675B4
:100B28006500E566B4041B7566000567056A056817
:100B3800E568B43C050569756800B43C05056B7546
:100B48006A0032C0F9A4B0999282F88090900B4B59
:100B5800E8C4540F93F592E8540F93F59122900B43
:100B68004BE8C4540F93F594E8540F93F5932290EF
:100B78000B4BE8C4540F93F58FE8540F93F58E226E
:100B880075F06484F9E5F075F00A84C454F045F012
:100B9800F822855838855939753A00753B00120096
:100BA8006675348275350075360075370012010593
:100BB80030001575308275310075320075330012BA
:100BC8000019853858853959855838855939753AFD
:100BD80000753B001200667534AA7535007536003D
:100BE8007537001201213000157530AA753100756E
:100BF8003200753300120019853858853959855ADD
:100C080038855B39753A00753B0012006675343CCF
:100C180075350075360075370012010530001575F9
:100C2800303C753100753200753300120019853873
:100C38005A85395B855A38855B39753A00753B00AA
:100C480012006675347875350075360075370012F0
:100C58000121300015753078753100753200753313
:100C68000012001985385A85395B855E38855F39E9
:100C7800753A00753B001200667534E675350075E7
:100C880036007537001201053000157530E67531EC
:100C98000075320075330012001985385E85395F9A
:100CA800855E38855F39753A00753B0012006675B8
:100CB80034F07535007536007537001201213000A3
:100CC800157530F075310075320075330012001952
:100CD80085385E85395F856038856139753A007574
:100CE8003B0012006675341E753500753600753781
:100CF8000012010530001575301E7531007532007F
:100D0800753300120019853860853961856038852A
:100D18006139753A00753B0012006675342D7535DA
:100D28000075360075370012012130001575302D19
:100D380075310075320075330012001985386085E9
:100D4800396122C2AF120AE81207271203677581B8
:100D58007F75E800759500756C00C280C200C201FD
:100D6800D202C203D204C205C206756900756800C2
:100D7800756600756EE0756D3675580075590075A5
:100D88005A00755B00755E00755F007560007561DF
:100D9800007552007553007554007555007546006E
:100DA8007547007548007549007542007543007520
:100DB8004400754500756400C2AF1204B21204E223
:100DC800D2AFD2AF22759ABB759B82120D4B759A22
:100DD800AA759B82120367C0E07401141203A7D09E
:100DE800E0C083C082C0E0900AD812039AD0E0D055
:100DF80082D083900AD8120740740D120738740AFB
:100E080012073875A18012047E020E54C2AF85679E
:100E180030753100753200753300120019A8381288
:100E28000B55856830753100753200753300120036
:100E380019A838120B66856930753100753200754E
:100E48003300120019A838120B77D2AF20040530EE
:100E580003028003020F71C203C2AF75A10075338C
:100E68000075320085A33185A23075348875351335
:100E780075360075370012017775340075351075B1
:100E8800360075370012026B85304A85314B853242
:100E98004C85334D75A10175330075320085A3313A
:100EA80085A230753488753513753600753700128C
:100EB80001777534007535107536007537001202E4
:100EC8006B75340A75350075360075370012026B7C
:100ED8007534117535017536007537001200E185D6
:100EE800304E85314F853250853351854A30854B98
:100EF80031854C32854D337534107535277536007C
:100F080075370012017775340C75353075360075F4
:100F1800370012026B85303485313585323685339A
:100F280037854E30854F31855032855133C034C0B6
:100F380035C036C03775340A7535007536007537D3
:100F480000120177D037D036D035D0341200BE85A4
:100F580030528531538532548533551200191207A2
:100F68004B12076F1207DAD2AF20040F20820C123F
:100F7800047E2082063082FD756C00300213C202A6
:100F8800C2AF756700D2AFD20512047E12047EC2CA
:100F98000575E800E56CB40002800302100AD2E887
:100FA800C280D204C0E07401141203A7D0E0C000CC
:100FB800A86B1203ACD000C0E0742E12035DD0E021
:100FC800C000A86A1203ACD000C2AF1204EF12032B
:100FD800D25003120438D2AF20E81120820B120439
:100FE8007E2082053082FD80030212A6C2AF120B5A
:100FF8009A120887D2AF756400D202C204056C0247
:1010080012A6E56CB4010280030210AFD2E9D280C7
:10101800C2AF75303C753100753200753300856795
:1010280034753500753600753700120121300023FC
:10103800C200855230855331855432855533753415
:10104800327535007536007537001201053000031A
:10105800756C00C200855838855939753A00753B5A
:1010680000753C0012006675340A75350075360047
:1010780075370012017785303485313585323685EC
:101088003337855230855331855432855533C20004
:10109800120121D2AF20E90830000280030212A613
:1010A800D202056C0212A6E56CB40202800302119A
:1010B80060D2EAC2AF855A38855B39753A00753B0C
:1010C80000753C0012006685305C85315D75301412
:1010D800753100753200753300855A34855B357576
:1010E800360075370012017775346475350075362A
:1010F8000075370012026B85305685315785673089
:10110800753100753200753300855634855735754D
:101118003600753700C200120121D2AF300004C278
:10112800808002D280C2AF85673075310075320089
:10113800753300855C34855D35753600753700C2BA
:1011480000120121D2AF20EA083000028003021207
:10115800A6D202056C0212A6E56CB40358D2EBD2F3
:1011680080C2AF855E38855F39753A00753B00757A
:101178003C0012006675340A7535007536007537FF
:10118800001201778530348531358532368533371D
:10119800855234855335855436855537C20012013A
:1011A80021D2AF20EB0820000280030212A6D2024F
:1011B800056C0212A6E56CB404028003021269D21F
:1011C800ECC2AF856038856139753A00753B0075AA
:1011D8003C001200668530628531637530147531C4
:1011E80000753200753300856234856335753600C5
:1011F80075370012017775346475350075360075DA
:10120800370012026B853056853157856730753146
:1012180000753200753300855634855735753600AC
:10122800753700C200120121D2AF300004C280809D
:1012380002D280C2AF856230856331753200753362
:1012480000856734753500753600753700C20012A1
:101258000121D2AF20EC03200044D202056C021217
:10126800A6E56CB40538D2EDC280C2AF8552308590
:101278005331855432855533753458753502753672
:1012880000753700C200120105D2AF20ED0330000F
:101298000DD202756C00120AA77430120738020EBC
:0112A8001134
:00000001FF
