:03000000020B9858
:03000B000208C226
:03002B000208E3E5
:10002E00C0E0C0D0C000C001C002C033C032C03179
:10003E00C030E4F538F539F53AF53BF53C7A20E574
:10004E0033A2E779047830E633F608D9FA790578E1
:10005E0038E636D4F608D9F9DAE5D030D031D032D8
:10006E00D033D002D001D000D0D0D0E022C0E0C03A
:10007E00D0C000C001C002C03CC03BC03AC039C0B5
:10008E00387A207905C3783CE613C0D030E70224D5
:10009E00D030E30224FDF618D0D0D9EC79047833B1
:1000AE00E613F618D9FADADBD200E5387002C20090
:1000BE00D038D039D03AD03BD03CD002D001D0008D
:1000CE00D0D0D0E022C0E0C0D0E5302534F530E508
:1000DE00313535F531E5323536F532E5333537F52F
:1000EE00339200D0D0D0E022C0E0C0D0C3E530952E
:1000FE0034F530E5319535F531E5329536F532E5A5
:10010E00339537F5339200D0D0D0E022C0E0C0D086
:10011E00C3E5309534E5319535E5329536E53395C1
:10012E00379200D0D0D0E022C0E0C0D0C3E53495E5
:10013E0030E5359531E5369532E53795339200D079
:10014E00D0D0E022C0E0C0D0C200C3E534953070FC
:10015E0014E5359531700EE53695327008E5379514
:10016E00337002D200D0D0D0E02212015220000310
:10017E000201362212015220000302011A22C0E0AF
:10018E00C0F0C0D0C000C001C002C003C004C00592
:10019E00E5308534F0A4F8A9F0E5318534F0A429D2
:1001AE00F9E435F0FAE5308535F0A429F9E5F03AB1
:1001BE00FAE433FBE5328534F0A42AFAE5F03BFB92
:1001CE00E5318535F0A42AFAE5F03BFBE5308536BE
:1001DE00F0A42AFAE5F03BFBE5338534F0A42BFBC3
:1001EE00ACF07D00E5328535F0A42BFBE5F03CFC50
:1001FE00E43DFDE5318536F0A42BFBE5F03CFCE457
:10020E003DFDE5308537F0A42BFBE5F03CFCE43DED
:10021E00FDEC4DFCE5338535F0A445F04CFCE532A4
:10022E008536F0A445F04CFCE5318537F0A445F059
:10023E004CFCE5338536F0A445F04CFCE5328537B1
:10024E00F0A445F04CFCE5338537F0A445F04CFCAA
:10025E008B338A3289318830D200BC0002C200D082
:10026E0005D004D003D002D001D000D0D0D0F0D031
:10027E00E022C0E0C0D0C000C001C002C003C00474
:10028E00E5344535453645377005D2000202EBC2DE
:10029E00007C20E4F8F9FAFBC3E53033F530E531A4
:1002AE0033F531E53233F532E53333F533E833F8F0
:1002BE00E933F9EA33FAEB33FBC3E89534E99535C4
:1002CE00EA9536EB95374013E89534F8E99535F90C
:1002DE00EA9536FAEB9537FB433001DCBBD004D000
:1002EE0003D002D001D000D0D0D0E02285303485AA
:1002FE00313585323685333722E530C534F530E574
:10030E0031C535F531E532C536F532E533C537F54C
:02031E00332288
:10032000C00078BE00000000D8FAD00022C000C093
:1003300001793278DFD8FED9FADAF6D001D000227E
:10034000D291120320C29112032022A2E79281A22D
:10035000E69283A2E59285A2E49287120340A2E38B
:100360009281A2E29283A2E19285A2E09287120397
:100370004022D29702034BC29702034BC291C002A4
:100380007A2812032DD002743312037774331203C8
:100390007774321203777428120377740C12037780
:1003A0007401120377C0027A0212032DD00222E4F4
:1003B000936006120372A380F62244404480020335
:1003C00077C0E0E8C4540F4430120372E8540F447D
:0703D00030120372D0E0229D
:1003D700C0F9A4B0999282F880908883C6A1868ECE
:1003E7009003D7E53B453C6004D2EF8002C2EF3073
:1003F700FB2FE538540F93F591E538C4540F93F567
:1004070092E539540F93F593E539C4540F93F59456
:10041700E53A540F93F58EE53AC4540F93F58F8060
:1004270024E53B540F93F591E53BC4540F93F592A4
:10043700E53C540F93F593E53CC4540F93F594753D
:100447008EFF758FFF227804C3E53833F538E53919
:1004570033F539E53A33F53AE53B33F53BE53C33DC
:10046700F53CD8E45338F0EF540F4238227804C3F0
:10047700E53C13F53CE53B13F53BE53A13F53AE567
:100487003913F539E53813F538D8E422780F794A66
:100497007AFADAFED9FAD8F622E564B40007853885
:1004A7005885395922B4010785385A85395B22B4F2
:1004B700020785385E85395F228538608539612274
:1004C700753A00753B00753C00E564B40007855834
:1004D7003885593922B40107855A38855B3922B4E2
:1004E7000207855E38855F39228560388561392244
:1004F700439B54439C01539CAB539DFE2220F90E12
:1005070012049320F90830F9FD120474C322C29231
:10051700C294C296C2A0A2A282A482A682B05002AE
:10052700C322120493A2A282A482A682B05002C35D
:1005370022D292D294D296D2A030E803020618C2F1
:100547009220A2097F0130A2FDD30206EA20A40966
:100557007F0230A4FDD30206EA20A6097F0330A656
:10056700FDD30206EA20B0097F0A30B0FDD30206A8
:10057700EAD292C29420A2097F0430A2FDD30206D8
:10058700EA20A4097F0530A4FDD30206EA20A609C4
:100597007F0630A6FDD30206EA20B0097F0B30B0F4
:1005A700FDD30206EAD294C29620A2097F0730A2A1
:1005B700FDD30206EA20A4097F0830A4FDD3020672
:1005C700EA20A6097F0930A6FDD30206EA20B00972
:1005D7007F0C30B0FDD30206EAD296C2A020A20952
:1005E7007F0E30A2FDD30206EA20A4097F0030A4C3
:1005F700FDD30206EA20A6097F0F30A6FDD3020627
:10060700EA20B0097F0D30B0FDD30206EAD2A0C3BD
:1006170022C29220A2097F0A30A2FDD30206EA2055
:10062700A4097F0B30A4FDD30206EA20A6097F0C9C
:1006370030A6FDD30206EA20B0097F0D30B0FDD306
:100647000206EAD292C29420A2097F0330A2FDD308
:100657000206EA20A4097F0630A4FDD30206EA2099
:10066700A6097F0930A6FDD30206EA20B0097F0F4D
:1006770030B0FDD30206EAD294C29620A2097F02C7
:1006870030A2FDD30206EA20A4097F0530A4FDD3DA
:100697000206EA20A6097F0830A6FDD30206EA2053
:1006A700B0097F0030B0FDD30206EAD296C2A0207F
:1006B700A2097F0130A2FDD30206EA20A4097F0424
:1006C70030A4FDD30206EA20A6097F0730A6FDD392
:1006D7000206EA20B0097F0E30B0FDD30206EAD247
:1006E700A0C322EFB40A0B1204A07564001204C75A
:1006F700C322B40B0B1204A07564011204C7C322F2
:10070700B40C0B1204A07564021204C7C322B40D03
:100717000B1204A07564031204C7C322B40E05129A
:100727000474C322B40F0DE4F538F539F53AF53BF7
:05073700F53CC3222285
:10073C00C28E53890F438920758D01758B00D28E23
:10074C00759852223099FDC299F59922E49360066E
:10075C00120750A380F6229003D7E539C4540F93A7
:10076C00F594E539540F93F593E538C4540F93542D
:10077C007FF592E538540F93F59122C0E074011483
:10078C001203BAD0E07454120372743D120372C097
:10079C0030C031C032C03312002EE539C4540F6062
:1007AC000744301203728006E539540F600BE539AB
:1007BC00540F44301203728007E538C4540F600A9A
:1007CC00E538C4540F4430120372E538540F4430EA
:1007DC00120372742E1203727430120372D033D05F
:1007EC0032D031D03022E539C4540F443012075086
:1007FC00E539540F4430120750E538C4540F4430D7
:10080C00120750742E120750E538540F443012075B
:10081C0050740D120750740A1207502274301203D0
:10082C00727478120372E533C4540F2490D434409C
:10083C00D4120372E533540F2490D43440D41203F1
:10084C0072E532C4540F2490D43440D4120372E5B0
:10085C0032540F2490D43440D4120372E531C45472
:10086C000F2490D43440D4120372E531540F2490E9
:10087C00D43440D4120372E530C4540F2490D434D1
:10088C0040D4120372E530540F2490D43440D41267
:03089C00037222C2
:10089F00546D706572617475726520546573740060
:1008AF00E58954F04401F58985668C85658AD2A95E
:1008BF00D28C22C28C85668C85658AD28CB28432AA
:1008CF0075C80075CDF575CC2775CBF575CA27D2D0
:1008DF00ADD2CA22C2CF0567E567B4FA1DD20305B0
:1008EF0068756700E568B404117568000569056AE5
:1008FF00E56AB43C05056B756A0032C0F9A4B0997E
:10090F009282F8809090090AE8C4540F93F592E808
:10091F00540F93F5912290090AE8C4540F93F5945C
:10092F00E8540F93F5932290090AE8C4540F93F5F6
:10093F008FE8540F93F58E2275F06484F9E5F07506
:10094F00F00A84C454F045F0F82285583885593997
:10095F00753A00753B0012007B7534827535007552
:10096F00360075370012011A300015753082753157
:10097F000075320075330012002E853858853959AD
:10098F00855838855939753A00753B0012007B75CB
:10099F0034AA7535007536007537001201363000F0
:1009AF00157530AA75310075320075330012002E9F
:1009BF00853858853959855A38855B39753A0075A8
:1009CF003B0012007B75343C75350075360075376A
:1009DF000012011A30001575303C75310075320068
:1009EF0075330012002E85385A85395B855A388544
:1009FF005B39753A00753B0012007B75347875359D
:100A0F0000753600753700120136300015753078D5
:100A1F0075310075320075330012002E85385A85F6
:100A2F00395B855E38855F39753A00753B0012007A
:100A3F007B7534E675350075360075370012011A6F
:100A4F003000157530E675310075320075330012C0
:100A5F00002E85385E85395F855E38855F39753A3A
:100A6F0000753B0012007B7534F07535007536004C
:100A7F007537001201363000157530F0753100757D
:100A8F00320075330012002E85385E85395F856020
:100A9F0038856139753A00753B0012007B75341E3D
:100AAF0075350075360075370012011A300015754F
:100ABF00301E75310075320075330012002E8538E7
:100ACF0060853961856038856139753A00753B00FD
:100ADF0012007B75342D7535007536007537001291
:100AEF00013630001575302D7531007532007533B4
:100AFF000012002E85386085396122C2AF1208CFEF
:100B0F0012037C75817F75E800759500756C00C2C6
:100B1F0080C200C201D202C203D204756B00756A93
:100B2F000075680075302C75310175320075330012
:100B3F0012002E853858853959755A00755B007526
:100B4F005E00755F0075600075610075520075532A
:100B5F0000755400755500754600754700754800BF
:100B6F007549007542007543007544007545007561
:100B7F006400C2AF1204C71204F7D2AF7566807556
:100B8F0065D8C28CC2A9D2AF22759AAB759B82125F
:100B9F000B0A759AAA759B8212037CC0E07401142C
:100BAF001203BCD0E0C083C082C0E090089F120344
:100BBF00AFD0E0D082D08390089F120758740D12E7
:100BCF000750740A12075075A180120493020C1F6C
:100BDF00C2AF856930753100753200753300120070
:100BEF002EA838120914856A3075310075320075D8
:100BFF00330012002EA838120925856B307531008D
:100C0F0075320075330012002EA838120936D2AF94
:100C1F002004053003028003020D39C203C2AF75F1
:100C2F00A10075330075320085A33185A23075346C
:100C3F008875351375360075370012018C753400C1
:100C4F0075351075360075370012028085304A856C
:100C5F00314B85324C85334D75A10175330075329B
:100C6F000085A33185A2307534887535137536002C
:100C7F0075370012018C7534007535107536007597
:100C8F00370012028075340A7535007536007537D6
:100C9F0000120280753411753501753600753700F5
:100CAF001200F685304E85314F8532508533518590
:100CBF004A30854B31854C32854D3375341075353F
:100CCF002775360075370012018C75340C75353069
:100CDF0075360075370012028085303485313585C1
:100CEF003236853337854E30854F318550328551B9
:100CFF0033C034C035C036C03775340A753500750A
:100D0F00360075370012018CD037D036D035D0343D
:100D1F001200D385305285315385325485335512A5
:100D2F00002E120763120787D2AF20040F20820C08
:100D3F001204932082063082FD756C00300209C2C6
:100D4F0002C2AF756900D2AF75E800E56CB400025E
:100D5F008003020DA0D204C2AF1205041203E750A4
:100D6F000312044DD2AFD2E8C28020E81120820BCB
:100D7F001204932082053082FD8003021034C2AF2B
:100D8F00120959D2AF756400D202C204056C021069
:100D9F0034E56CB401028003020E45D2E9D280C261
:100DAF00AF75303C7531007532007533008569348D
:100DBF00753500753600753700120136300023C2C5
:100DCF000085523085533185543285553375343211
:100DDF0075350075360075370012011A300003752E
:100DEF006C00C200855838855939753A00753B003B
:100DFF00753C0012007B75340A7535007536007529
:100E0F00370012018C853034853135853236853384
:100E1F0037855230855331855432855533C2001290
:100E2F000136D2AF20E9083000028003021034D21D
:100E3F0002056C021034E56CB402028003020EF658
:100E4F00D2EAC2AF855A38855B39753A00753B00D7
:100E5F00753C0012007B85305C85315D75301475F3
:100E6F003100753200753300855A34855B35753620
:100E7F000075370012018C753464753500753600B6
:100E8F007537001202808530568531578569307568
:100E9F0031007532007533008556348557357536F8
:100EAF0000753700C200120136D2AF300004C28085
:100EBF008002D280C2AF85693075310075320075FE
:100ECF003300855C34855D35753600753700C2009B
:100EDF00120136D2AF20EA0830000280030210342C
:100EEF00D202056C021034E56CB40358D2EBD280F9
:100EFF00C2AF855E38855F39753A00753B00753C2A
:100F0F000012007B75340A75350075360075370091
:100F1F0012018C85303485313585323685333785EE
:100F2F005234855335855436855537C200120136F4
:100F3F00D2AF20EB082000028003021034D202054A
:100F4F006C021034E56CB404028003020FFFD2EC84
:100F5F00C2AF856038856139753A00753B00753CC5
:100F6F000012007B85306285316375301475310056
:100F7F0075320075330085623485633575360075BB
:100F8F00370012018C75346475350075360075376E
:100F9F0000120280853056853157856930753100D2
:100FAF0075320075330085563485573575360075A3
:100FBF003700C200120136D2AF300004D280800257
:100FCF00C280C2AF856230856331753200753300E0
:100FDF00856934753500753600753700C20012010A
:100FEF0036D2AF20EC0320003CD202056C02103445
:100FFF00E56CB40530D2EDC280C2AF855230855357
:10100F00318554328555337534DC753500753600AE
:10101F00753700C20012011AD2AF20ED0330000560
:08102F00D202756C00020BDC1B
:00000001FF
