:03000000020C1BD4
:0C000B0002096050524F46494C452C0041
:10001700C0E0C0D0C000C001C002C033C032C03190
:10002700C030E4F538F539F53AF53BF53C7A20E58B
:1000370033A2E779047830E633F608D9FA790578F8
:1000470038E636D4F608D9F9DAE5D030D031D032EF
:10005700D033D002D001D000D0D0D0E022C0E0C051
:10006700D0C000C001C002C03CC03BC03AC039C0CC
:10007700387A207905C3783CE613C0D030E70224EC
:10008700D030E30224FDF618D0D0D9EC79047833C8
:10009700E613F618D9FADADBD200E5387002C200A7
:1000A700D038D039D03AD03BD03CD002D001D000A4
:1000B700D0D0D0E022C0E0C0D0E5302534F530E51F
:1000C700313535F531E5323536F532E5333537F546
:1000D700339200D0D0D0E022C0E0C0D0C3E5309545
:1000E70034F530E5319535F531E5329536F532E5BC
:1000F700339537F5339200D0D0D0E022C0E0C0D09E
:10010700C3E5309534E5319535E5329536E53395D8
:10011700379200D0D0D0E022C0E0C0D0C3E53495FC
:1001270030E5359531E5369532E53795339200D090
:10013700D0D0E022C0E0C0D0C200C3E53495307013
:1001470014E5359531700EE53695327008E537952B
:10015700337002D200D0D0D0E02212013B2000033E
:1001670002011F2212013B20000302010322C0E00B
:10017700C0F0C0D0C000C001C002C003C004C005A9
:10018700E5308534F0A4F8A9F0E5318534F0A429E9
:10019700F9E435F0FAE5308535F0A429F9E5F03AC8
:1001A700FAE433FBE5328534F0A42AFAE5F03BFBA9
:1001B700E5318535F0A42AFAE5F03BFBE5308536D5
:1001C700F0A42AFAE5F03BFBE5338534F0A42BFBDA
:1001D700ACF07D00E5328535F0A42BFBE5F03CFC67
:1001E700E43DFDE5318536F0A42BFBE5F03CFCE46E
:1001F7003DFDE5308537F0A42BFBE5F03CFCE43D05
:10020700FDEC4DFCE5338535F0A445F04CFCE532BB
:100217008536F0A445F04CFCE5318537F0A445F070
:100227004CFCE5338536F0A445F04CFCE5328537C8
:10023700F0A445F04CFCE5338537F0A445F04CFCC1
:100247008B338A3289318830D200BC0002C200D099
:1002570005D004D003D002D001D000D0D0D0F0D048
:10026700E022C0E0C0D0C000C001C002C003C0048B
:10027700E5344535453645377005D2000202D4C20C
:10028700007C20E4F8F9FAFBC3E53033F530E531BB
:1002970033F531E53233F532E53333F533E833F807
:1002A700E933F9EA33FAEB33FBC3E89534E99535DB
:1002B700EA9536EB95374013E89534F8E99535F923
:1002C700EA9536FAEB9537FB433001DCBBD004D017
:1002D70003D002D001D000D0D0D0E02285303485C1
:1002E700313585323685333722E530C534F530E58B
:1002F70031C535F531E532C536F532E533C537F564
:0203070033229F
:10030900C00078BE00000000D8FAD00022C000C0AA
:1003190001793278DFD8FED9FADAF6D001D0002295
:10032900D291120309C29112030922A2E79281A272
:10033900E69283A2E59285A2E49287120329A2E3B9
:100349009281A2E29283A2E19285A2E092871203AE
:100359002922D297020334C297020334C291C00200
:100369007A28120316D0027433120360743312030D
:100379006074321203607428120360740C120360F3
:100389007401120360C0027A02120316D00222E439
:1003990093600612035BA380F62244404480020363
:1003A90060C0E0E8C4540F443012035BE8540F44C2
:0703B9003012035BD0E022CB
:1003C000C0F9A4B0999282F880908883C6A1868EE5
:1003D0009003C0E53B453C6004D2EF8002C2EF30A1
:1003E000FB2FE538540F93F591E538C4540F93F57E
:1003F00092E539540F93F593E539C4540F93F5946E
:10040000E53A540F93F58EE53AC4540F93F58F8077
:1004100024E53B540F93F591E53BC4540F93F592BB
:10042000E53C540F93F593E53CC4540F93F5947554
:100430008EFF758FFF227804C3E53833F538E53930
:1004400033F539E53A33F53AE53B33F53BE53C33F3
:10045000F53CD8E45338F0EF540F4238227804C307
:10046000E53C13F53CE53B13F53BE53A13F53AE57E
:100470003913F539E53813F538D8E422780F794A7D
:100480007AFADAFED9FAD8F622E564B4000785389C
:100490005885395922B4010785385A85395B22B409
:1004A000020785385E85395F22853860853961228B
:1004B000753A00753B00753C00E564B4000785584B
:1004C0003885593922B40107855A38855B3922B4F9
:1004D0000207855E38855F3922856038856139225B
:1004E000439B54439C01539CAB539DFE2220F90E29
:1004F00012047C20F90830F9FD12045DC322C29277
:10050000C294C296C2A0A2A282A482A682B05002C5
:10051000C32212047CA2A282A482A682B05002C38B
:1005200022D292D294D296D2A030E803020601C21F
:100530009220A2097F0130A2FDD30206D320A40994
:100540007F0230A4FDD30206D320A6097F0330A684
:10055000FDD30206D320B0097F0A30B0FDD30206D6
:10056000D3D292C29420A2097F0430A2FDD3020606
:10057000D320A4097F0530A4FDD30206D320A60909
:100580007F0630A6FDD30206D320B0097F0B30B022
:10059000FDD30206D3D294C29620A2097F0730A2CF
:1005A000FDD30206D320A4097F0830A4FDD30206A0
:1005B000D320A6097F0930A6FDD30206D320B009B7
:1005C0007F0C30B0FDD30206D3D296C2A020A20980
:1005D0007F0E30A2FDD30206D320A4097F0030A4F1
:1005E000FDD30206D320A6097F0F30A6FDD3020655
:1005F000D320B0097F0D30B0FDD30206D3D2A0C303
:1006000022C29220A2097F0A30A2FDD30206D32083
:10061000A4097F0B30A4FDD30206D320A6097F0CCA
:1006200030A6FDD30206D320B0097F0D30B0FDD334
:100630000206D3D292C29420A2097F0330A2FDD336
:100640000206D320A4097F0630A4FDD30206D320DE
:10065000A6097F0930A6FDD30206D320B0097F0F7B
:1006600030B0FDD30206D3D294C29620A2097F02F5
:1006700030A2FDD30206D320A4097F0530A4FDD308
:100680000206D320A6097F0830A6FDD30206D32098
:10069000B0097F0030B0FDD30206D3D296C2A020AD
:1006A000A2097F0130A2FDD30206D320A4097F0452
:1006B00030A4FDD30206D320A6097F0730A6FDD3C0
:1006C0000206D320B0097F0E30B0FDD30206D3D28C
:1006D000A0C322EFB40A0B1204897564001204B09F
:1006E000C322B40B0B1204897564011204B0C32237
:1006F000B40C0B1204897564021204B0C322B40D49
:100700000B1204897564031204B0C322B40E0512DF
:10071000045DC322B40F0DE4F538F539F53AF53B25
:05072000F53CC322229C
:10072500C2CA75C83075CBFF75CAF7D2CA7598525B
:10073500223099FDC299F59922E493600612073695
:10074500A380F6229003C0E539C4540F93F594E5D0
:1007550039540F93F593E538C4540F93547FF592AC
:10076500E538540F93F59122C0E07401141203A3E8
:10077500D0E0745412035B743D12035BC030C0318A
:10078500C032C033120017E539C4540F6007443036
:1007950012035B8006E539540F600BE539540F44AD
:1007A5003012035B8007E538C4540F600AE538C48E
:1007B500540F443012035BE538540F443012035B89
:1007C500742E12035B743012035BD033D032D031F8
:1007D500D03022E539C4540F4430120736E5395478
:1007E5000F4430120736E538C4540F44301207362B
:1007F500742E120736E538540F4430120736740D3F
:10080500120736740A12073622743012035B7478A5
:1008150012035BE533C4540F2490D43440D412033F
:100825005BE533540F2490D43440D412035BE53296
:10083500C4540F2490D43440D412035BE532540FD2
:100845002490D43440D412035BE531C4540F249072
:10085500D43440D412035BE531540F2490D4344092
:10086500D412035BE530C4540F2490D43440D41221
:10087500035BE530540F2490D43440D412035B223B
:1008850090000E12073EE559C4540F443012073646
:10089500E559540F4430120736E558C4540F443017
:1008A500120736E558540F4430120736742C1207D8
:1008B50036E55BC4540F4430120736E55B540F44EC
:1008C50030120736E55AC4540F4430120736E55A3C
:1008D500540F4430120736742C120736E55FC454A2
:1008E5000F4430120736E55F540F4430120736E5E2
:1008F5005EC4540F4430120736E55E540F4430127F
:100905000736742C120736E561C4540F44301207BC
:1009150036E561540F4430120736E560C4540F4480
:1009250030120736E560540F4430120736740D1245
:080935000736740A120736228E
:10093D00546D7065726174757265205465737400C1
:10094D00E58954F04401F589758CF5758A68D2A94D
:10095D00D28C22C28C758CF5758A68D28C300502CA
:10096D00B2840565E565B4FA1DD2030566756500AB
:10097D00E566B4041175660005670568E568B43C65
:10098D0005056975680032C0F9A4B0999282F880A6
:10099D0090900994E8C4540F93F592E8540F93F591
:1009AD009122900994E8C4540F93F594E8540F9351
:1009BD00F59322900994E8C4540F93F58FE8540FE2
:1009CD0093F58E2275F06484F9E5F075F00A84C410
:1009DD0054F045F0F822855838855939753A007527
:1009ED003B0012006475348275350075360075371D
:1009FD00001201033000157530827531007532001B
:100A0D007533001200178538588539598558388542
:100A1D005939753A00753B001200647534AA753565
:100A2D000075360075370012011F3000157530AA9C
:100A3D0075310075320075330012001785385885F1
:100A4D003959855A38855B39753A00753B00120066
:100A5D006475343C75350075360075370012010329
:100A6D0030001575303C753100753200753300124C
:100A7D00001785385A85395B855A38855B39753A43
:100A8D0000753B00120064753478753500753600BD
:100A9D0075370012011F30001575307875310075EE
:100AAD00320075330012001785385A85395B855E23
:100ABD0038855F39753A00753B001200647534E670
:100ACD007535007536007537001201033000157548
:100ADD0030E6753100753200753300120017853818
:100AED005E85395F855E38855F39753A00753B00E7
:100AFD001200647534F075350075360075370012C7
:100B0D00011F3000157530F07531007532007533E9
:100B1D000012001785385E85395F8560388561392B
:100B2D00753A00753B0012006475341E75350075FD
:100B3D00360075370012010330001575301E753102
:100B4D0000753200753300120017853860853961E4
:100B5D00856038856139753A00753B001200647502
:100B6D00342D75350075360075370012011F3000B4
:100B7D001575302D75310075320075330012001763
:100B8D0085386085396122C2AF12094D12072512D1
:100B9D00036575817F75E800759500756A00C280E3
:100BAD00C200C201D202C203D20475690075680089
:100BBD0075660075302C7531017532007533001274
:100BCD000017853858853959755A00755B00755E63
:100BDD0000755F00756000756100755200755300FA
:100BED0075540075550075460075470075480075BC
:100BFD0049007542007543007544007545007564E4
:100C0D0000C2AF1204B01204E0D2AFD2AF22759A77
:100C1D00BB759B82120B94759AAA759B8212036504
:100C2D00C0E07401141203A5D0E0C083C082C0E0FF
:100C3D0090093D120398D0E0D082D08390093D12E7
:100C4D00073E740D120736740A12073675A180120D
:100C5D00047C020CA2C2AF8567307531007532007D
:100C6D00753300120017A83812099E85683075314A
:100C7D0000753200753300120017A8381209AF85C0
:100C8D006930753100753200753300120017A838C0
:100C9D001209C0D2AF2004053003028003020DBF3C
:100CAD00C203C2AF75A10075330075320085A33143
:100CBD0085A2307534887535137536007537001279
:100CCD0001757534007535107536007537001202D3
:100CDD006985304A85314B85324C85334D75A1017F
:100CED0075330075320085A33185A2307534887552
:100CFD00351375360075370012017575340075356D
:100D0D001075360075370012026975340A75350095
:100D1D007536007537001202697534117535017518
:100D2D0036007537001200DF85304E85314F853224
:100D3D0050853351854A30854B31854C32854D3345
:100D4D0075341075352775360075370012017575B8
:100D5D00340C7535307536007537001202698530E3
:100D6D0034853135853236853337854E30854F3173
:100D7D00855032855133C034C035C036C0377534D7
:100D8D000A753500753600753700120175D037D0EC
:100D9D0036D035D0341200BC853052853153853272
:100DAD005485335512001712074912076D1207D8D3
:100DBD00D2AF20040F20820C12047C2082063082D8
:100DCD00FD756A00300210C202C2AF756700D20510
:100DDD0012047CC205D2AF75E800E56AB40002804A
:100DED0003020E30D2E8C280D204C2AF1204ED125B
:100DFD0003D05003120436D2AF20E81120820B121B
:100E0D00047C2082053082FD80030210C4C2AF1223
:100E1D0009E3120885D2AF756400D202C204056AD7
:100E2D000210C4E56AB401028003020ED5D2E9D2E4
:100E3D0080C2AF75303C7531007532007533008559
:100E4D00673475350075360075370012011F300097
:100E5D0023C2008552308553318554328555337503
:100E6D0034327535007536007537001201033000C8
:100E7D0003756A00C200855838855939753A007571
:100E8D003B00753C0012006475340A7535007536EB
:100E9D000075370012017585303485313585323650
:100EAD00853337855230855331855432855533C25C
:100EBD000012011FD2AF20E908300002800302109A
:100ECD00C4D202056A0210C4E56AB40202800302AC
:100EDD000F86D2EAC2AF855A38855B39753A0075EF
:100EED003B00753C0012006485305C85315D7530CA
:100EFD0014753100753200753300855A34855B35B4
:100F0D0075360075370012017575346475350075C9
:100F1D003600753700120269853056853157856761
:100F2D00307531007532007533008556348557356F
:100F3D00753600753700C20012011FD2AF300004A4
:100F4D00C2808002D280C2AF8567307531007532A4
:100F5D0000753300855C34855D3575360075370059
:100F6D00C20012011FD2AF20EA0830000280030236
:100F7D0010C4D202056A0210C4E56AB40358D2EB5C
:100F8D00D280C2AF855E38855F39753A00753B00FA
:100F9D00753C0012006475340A75350075360075A0
:100FAD0037001201758530348531358532368533FC
:100FBD0037855234855335855436855537C20012E1
:100FCD00011FD2AF20EB0820000280030210C4D213
:100FDD0002056A0210C4E56AB40402800302108F90
:100FED00D2ECC2AF856038856139753A00753B002A
:100FFD00753C00120064853062853163753014755F
:10100D003100753200753300856234856335753670
:10101D00007537001201757534647535007536002D
:10102D0075370012026985305685315785673075E1
:10103D003100753200753300855634855735753658
:10104D0000753700C20012011FD2AF300004C280FC
:10105D008002D280C2AF85623085633175320075F2
:10106D003300856734753500753600753700C2005D
:10107D0012011FD2AF20EC0320003CD202056A0200
:10108D0010C4E56AB40530D2EDC280C2AF855230CE
:10109D008553318554328555337534587535027500
:1010AD003600753700C200120103D2AF20ED0330B8
:0A10BD000005D202756A00020C5F04
:00000001FF
