:03000000020C5F90
:0E000B0002096250524F46494C452C002C0011
:10001900C0E0C0D0C000C001C002C033C032C0318E
:10002900C030E4F538F539F53AF53BF53C7A20E589
:1000390033A2E779047830E633F608D9FA790578F6
:1000490038E636D4F608D9F9DAE5D030D031D032ED
:10005900D033D002D001D000D0D0D0E022C0E0C04F
:10006900D0C000C001C002C03CC03BC03AC039C0CA
:10007900387A207905C3783CE613C0D030E70224EA
:10008900D030E30224FDF618D0D0D9EC79047833C6
:10009900E613F618D9FADADBD200E5387002C200A5
:1000A900D038D039D03AD03BD03CD002D001D000A2
:1000B900D0D0D0E022C0E0C0D0E5302534F530E51D
:1000C900313535F531E5323536F532E5333537F544
:1000D900339200D0D0D0E022C0E0C0D0C3E5309543
:1000E90034F530E5319535F531E5329536F532E5BA
:1000F900339537F5339200D0D0D0E022C0E0C0D09C
:10010900C3E5309534E5319535E5329536E53395D6
:10011900379200D0D0D0E022C0E0C0D0C3E53495FA
:1001290030E5359531E5369532E53795339200D08E
:10013900D0D0E022C0E0C0D0C200C3E53495307011
:1001490014E5359531700EE53695327008E5379529
:10015900337002D200D0D0D0E02212013D2000033A
:100169000201212212013D20000302010522C0E003
:10017900C0F0C0D0C000C001C002C003C004C005A7
:10018900E5308534F0A4F8A9F0E5318534F0A429E7
:10019900F9E435F0FAE5308535F0A429F9E5F03AC6
:1001A900FAE433FBE5328534F0A42AFAE5F03BFBA7
:1001B900E5318535F0A42AFAE5F03BFBE5308536D3
:1001C900F0A42AFAE5F03BFBE5338534F0A42BFBD8
:1001D900ACF07D00E5328535F0A42BFBE5F03CFC65
:1001E900E43DFDE5318536F0A42BFBE5F03CFCE46C
:1001F9003DFDE5308537F0A42BFBE5F03CFCE43D03
:10020900FDEC4DFCE5338535F0A445F04CFCE532B9
:100219008536F0A445F04CFCE5318537F0A445F06E
:100229004CFCE5338536F0A445F04CFCE5328537C6
:10023900F0A445F04CFCE5338537F0A445F04CFCBF
:100249008B338A3289318830D200BC0002C200D097
:1002590005D004D003D002D001D000D0D0D0F0D046
:10026900E022C0E0C0D0C000C001C002C003C00489
:10027900E5344535453645377005D2000202D6C208
:10028900007C20E4F8F9FAFBC3E53033F530E531B9
:1002990033F531E53233F532E53333F533E833F805
:1002A900E933F9EA33FAEB33FBC3E89534E99535D9
:1002B900EA9536EB95374013E89534F8E99535F921
:1002C900EA9536FAEB9537FB433001DCBBD004D015
:1002D90003D002D001D000D0D0D0E02285303485BF
:1002E900313585323685333722E530C534F530E589
:1002F90031C535F531E532C536F532E533C537F562
:0203090033229D
:10030B00C00078BE00000000D8FAD00022C000C0A8
:10031B0001793278DFD8FED9FADAF6D001D0002293
:10032B00D29112030BC29112030B22A2E79281A26C
:10033B00E69283A2E59285A2E4928712032BA2E3B5
:10034B009281A2E29283A2E19285A2E092871203AC
:10035B002B22D297020336C297020336C291C002F8
:10036B007A28120318D00274331203627433120307
:10037B006274321203627428120362740C120362E9
:10038B007401120362C0027A02120318D00222E433
:10039B0093600612035DA380F6224440448002035F
:1003AB0062C0E0E8C4540F443012035DE8540F44BC
:0703BB003012035DD0E022C7
:1003C200C0F9A4B0999282F880908883C6A1868EE3
:1003D2009003C2E53B453C6004D2EF8002C2EF309D
:1003E200FB2FE538540F93F591E538C4540F93F57C
:1003F20092E539540F93F593E539C4540F93F5946C
:10040200E53A540F93F58EE53AC4540F93F58F8075
:1004120024E53B540F93F591E53BC4540F93F592B9
:10042200E53C540F93F593E53CC4540F93F5947552
:100432008EFF758FFF227804C3E53833F538E5392E
:1004420033F539E53A33F53AE53B33F53BE53C33F1
:10045200F53CD8E45338F0EF540F4238227804C305
:10046200E53C13F53CE53B13F53BE53A13F53AE57C
:100472003913F539E53813F538D8E422780F794A7B
:100482007AFADAFED9FAD8F622E564B4000785389A
:100492005885395922B4010785385A85395B22B407
:1004A200020785385E85395F228538608539612289
:1004B200753A00753B00753C00E564B40007855849
:1004C2003885593922B40107855A38855B3922B4F7
:1004D2000207855E38855F39228560388561392259
:1004E200439B54439C01539CAB539DFE2220F90E27
:1004F20012047E20F90830F9FD12045FC322C29271
:10050200C294C296C2A0A2A282A482A682B05002C3
:10051200C32212047EA2A282A482A682B05002C387
:1005220022D292D294D296D2A030E803020603C21B
:100532009220A2097F0130A2FDD30206D520A40990
:100542007F0230A4FDD30206D520A6097F0330A680
:10055200FDD30206D520B0097F0A30B0FDD30206D2
:10056200D5D292C29420A2097F0430A2FDD3020602
:10057200D520A4097F0530A4FDD30206D520A60903
:100582007F0630A6FDD30206D520B0097F0B30B01E
:10059200FDD30206D5D294C29620A2097F0730A2CB
:1005A200FDD30206D520A4097F0830A4FDD302069C
:1005B200D520A6097F0930A6FDD30206D520B009B1
:1005C2007F0C30B0FDD30206D5D296C2A020A2097C
:1005D2007F0E30A2FDD30206D520A4097F0030A4ED
:1005E200FDD30206D520A6097F0F30A6FDD3020651
:1005F200D520B0097F0D30B0FDD30206D5D2A0C3FD
:1006020022C29220A2097F0A30A2FDD30206D5207F
:10061200A4097F0B30A4FDD30206D520A6097F0CC6
:1006220030A6FDD30206D520B0097F0D30B0FDD330
:100632000206D5D292C29420A2097F0330A2FDD332
:100642000206D520A4097F0630A4FDD30206D520D8
:10065200A6097F0930A6FDD30206D520B0097F0F77
:1006620030B0FDD30206D5D294C29620A2097F02F1
:1006720030A2FDD30206D520A4097F0530A4FDD304
:100682000206D520A6097F0830A6FDD30206D52092
:10069200B0097F0030B0FDD30206D5D296C2A020A9
:1006A200A2097F0130A2FDD30206D520A4097F044E
:1006B20030A4FDD30206D520A6097F0730A6FDD3BC
:1006C2000206D520B0097F0E30B0FDD30206D5D286
:1006D200A0C322EFB40A0B12048B7564001204B299
:1006E200C322B40B0B12048B7564011204B2C32231
:1006F200B40C0B12048B7564021204B2C322B40D43
:100702000B12048B7564031204B2C322B40E0512D9
:10071200045FC322B40F0DE4F538F539F53AF53B21
:05072200F53CC322229A
:10072700C2CA75C83075CBFF75CAF7D2CA75985259
:10073700223099FDC299F59922E493600612073891
:10074700A380F6229003C2E539C4540F93F594E5CC
:1007570039540F93F593E538C4540F93547FF592AA
:10076700E538540F93F59122C0E07401141203A5E4
:10077700D0E0745412035D743D12035DC030C03184
:10078700C032C033120019E539C4540F6007443032
:1007970012035D8006E539540F600BE539540F44A9
:1007A7003012035D8007E538C4540F600AE538C48A
:1007B700540F443012035DE538540F443012035D83
:1007C700742E12035D743012035DD033D032D031F2
:1007D700D03022E539C4540F4430120738E5395474
:1007E7000F4430120738E538C4540F443012073825
:1007F700742E120738E538540F4430120738740D39
:10080700120738740A12073822743012035D74789D
:1008170012035DE533C4540F2490D43440D412033B
:100827005DE533540F2490D43440D412035DE53290
:10083700C4540F2490D43440D412035DE532540FCE
:100847002490D43440D412035DE531C4540F24906E
:10085700D43440D412035DE531540F2490D434408E
:10086700D412035DE530C4540F2490D43440D4121D
:10087700035DE530540F2490D43440D412035D2235
:1008870090000E120740E559C4540F443012073840
:10089700E559540F4430120738E558C4540F443013
:1008A700120738E558540F4430120738742C1207D2
:1008B70038E55BC4540F4430120738E55B540F44E6
:1008C70030120738E55AC4540F4430120738E55A36
:1008D700540F4430120738742C120738E55FC4549C
:1008E7000F4430120738E55F540F4430120738E5DC
:1008F7005EC4540F4430120738E55E540F4430127B
:100907000738742C120738E561C4540F44301207B6
:1009170038E561540F4430120738E560C4540F447A
:1009270030120738E560540F4430120738740D123F
:080937000738740A1207382288
:10093F00546D7065726174757265205465737400BF
:10094F00E58954F04401F589758CF5758A68D2A94B
:10095F00D28C22C0E0C0D0C0F0C082C083C000C023
:10096F0001C002C003C004C005C006C007C28C7519
:10097F008CF5758A68D28C300502B2840565E56501
:10098F00B4FA1DD2030566756500E566B4041175EA
:10099F00660005670568E568B43C0505697568007C
:1009AF00D007D006D005D004D003D002D001D0009C
:1009BF00D083D082D0F0D0D0D0E032C0F9A4B0999B
:1009CF009282F880909009CAE8C4540F93F592E888
:1009DF00540F93F591229009CAE8C4540F93F594DC
:1009EF00E8540F93F593229009CAE8C4540F93F576
:1009FF008FE8540F93F58E2275F06484F9E5F07546
:100A0F00F00A84C454F045F0F822855838855939D6
:100A1F00753A00753B0012006675348275350075A6
:100A2F0036007537001201053000157530827531AB
:100A3F000075320075330012001985385885395901
:100A4F00855838855939753A00753B00120066751F
:100A5F0034AA753500753600753700120121300044
:100A6F00157530AA753100753200753300120019F3
:100A7F00853858853959855A38855B39753A0075E7
:100A8F003B0012006675343C7535007536007537BE
:100A9F000012010530001575303C753100753200BC
:100AAF0075330012001985385A85395B855A388598
:100ABF005B39753A00753B001200667534787535F1
:100ACF00007536007537001201213000157530782A
:100ADF0075310075320075330012001985385A854B
:100AEF00395B855E38855F39753A00753B001200BA
:100AFF00667534E6753500753600753700120105D9
:100B0F003000157530E675310075320075330012FF
:100B1F00001985385E85395F855E38855F39753A8E
:100B2F0000753B001200667534F0753500753600A0
:100B3F007537001201213000157530F075310075D1
:100B4F00320075330012001985385E85395F856074
:100B5F0038856139753A00753B0012006675341E91
:100B6F0075350075360075370012010530001575A3
:100B7F00301E75310075320075330012001985383B
:100B8F0060853961856038856139753A00753B003C
:100B9F0012006675342D75350075360075370012E5
:100BAF00012130001575302D753100753200753308
:100BBF000012001985386085396122C2AF12094FC2
:100BCF0012072712036775817F75E8007595007509
:100BDF006A00C280C200C201D202C203D204C2059F
:100BEF00C206D207C2087569007568007566007580
:100BFF006CE0756B3675302C7531017532007533BD
:100C0F0000120019853858853959755A00755B00DF
:100C1F00755E00755F007560007561007552007537
:100C2F00530075540075550075460075470075489B
:100C3F000075490075420075430075440075450005
:100C4F00756400C2AF1204B21204E2D2AFD2AF2267
:100C5F00759ABB759B82120BCA759AAA759B8212E5
:100C6F000367C0E07401141203A7D0E0C083C082F1
:100C7F00C0E090093F12039AD0E0D082D083900950
:100C8F003F120740740D120738740A12073875A106
:100C9F008012047E020CE6C2AF8567307531007595
:100CAF003200753300120019A8381209D485683044
:100CBF00753100753200753300120019A83812090A
:100CCF00E5856930753100753200753300120019F2
:100CDF00A8381209F6D2AF20951320081212047EFD
:100CEF0020950CD208B206D207D2028002C2082089
:100CFF0004053003028003020E24C203C2AF121296
:100D0F000375A10075330075320085A33185A230BC
:100D1F007534887535137536007537001201777580
:100D2F00340075351075360075370012026B85303B
:100D3F004A85314B85324C85334D75A10175330092
:100D4F0075320085A33185A23075348875351375DA
:100D5F00360075370012017775340075351075360A
:100D6F000075370012026B75340A75350075360041
:100D7F0075370012026B75341175350175360075B4
:100D8F0037001200E185304E85314F853250853363
:100D9F0051854A30854B31854C32854D3375341032
:100DAF0075352775360075370012017775340C7558
:100DBF00353075360075370012026B85303485314A
:100DCF0035853236853337854E30854F31855032F4
:100DDF00855133C034C035C036C03775340A7535C8
:100DEF0000753600753700120177D037D036D03501
:100DFF00D0341200BE85305285315385325485333D
:100E0F005512001912074B30060620020312076F06
:100E1F001207DAD2AF20040F20820C12047E208238
:100E2F00063082FD756A00300216C202C2AF7567C6
:100E3F0000D2AFD20512047E12047EC20512115ADF
:100E4F0075E800E56AB400028003020E9BD2E8C287
:100E5F0080D204C2AF1204EF1203D250031204382F
:100E6F00D2AF20E81120820B12047E20820530823F
:100E7F00FD8003021157C2AF120A19120887D2AFB1
:100E8F00756400D202C204056A021157E56AB40103
:100E9F00028003020F40D2E9D280C2AF75303C7599
:100EAF00310075320075330085673475350075363E
:100EBF0000753700120121300023C20085523085A2
:100ECF005331855432855533753432753500753647
:100EDF0000753700120105300003756A00C20085E6
:100EEF005838855939753A00753B00753C0012002A
:100EFF006675340A7535007536007537001201773F
:100F0F008530348531358532368533378552308596
:100F1F005331855432855533C200120121D2AF208F
:100F2F00E9083000028003021157D202056A02114C
:100F3F0057E56AB402028003020FF1D2EAC2AF850D
:100F4F005A38855B39753A00753B00753C001200C5
:100F5F006685305C85315D753014753100753200F2
:100F6F00753300855A34855B357536007537001239
:100F7F0001777534647535007536007537001202C8
:100F8F006B85305685315785673075310075320066
:100F9F00753300855634855735753600753700C261
:100FAF0000120121D2AF300004C2808002D280C271
:100FBF00AF856730753100753200753300855C344D
:100FCF00855D35753600753700C200120121D2AF2D
:100FDF0020EA083000028003021157D202056A028C
:100FEF001157E56AB40358D2EBD280C2AF855E3891
:100FFF00855F39753A00753B00753C0012006675C8
:10100F00340A753500753600753700120177853053
:10101F0034853135853236853337855234855335AE
:10102F00855436855537C200120121D2AF20EB0807
:10103F002000028003021157D202056A021157E500
:10104F006AB4040280030210FAD2ECC2AF85603892
:10105F00856139753A00753B00753C001200668555
:10106F003062853163753014753100753200753318
:10107F000085623485633575360075370012017748
:10108F0075346475350075360075370012026B853F
:10109F00305685315785673075310075320075339D
:1010AF0000855634855735753600753700C20012E6
:1010BF000121D2AF300004C2808002D280C2AF853E
:1010CF00623085633175320075330085673475354D
:1010DF0000753600753700C200120121D2AF20EC27
:1010EF0003200064D202056A021157E56AB405585D
:1010FF00D2EDC280C2AF85523085533185543285CF
:10110F005533753458753502753600753700C20082
:10111F00120105D2AF20ED0330002DD202756A0007
:10112F00D20512047E12047EC205D20512047E126D
:10113F00047EC205D20512047E12047EC205D205BA
:10114F0012047E12047EC205020CA3C0E0740114C7
:10115F001203A7D0E0C083C082C0E09012E912034F
:10116F009AD0E0D082D083C0E07401141203A7D0CC
:10117F00E0E56AB40013C083C082C0E0901324126C
:10118F00039AD0E0D082D08322B40113C083C082EF
:10119F00C0E090132912039AD0E0D082D08322B4FA
:1011AF000213C083C082C0E090132F12039AD0E0C5
:1011BF00D082D08322B40313C083C082C0E09013C7
:1011CF003412039AD0E0D082D08322B40413C083A8
:1011DF00C082C0E090133A12039AD0E0D082D0833D
:1011EF0022C083C082C0E090134112039AD0E0D096
:1011FF0082D083222006041212722220070122C2FB
:10120F0007C0E07401141203A7D0E0C083C082C0EE
:10121F00E09012E912039AD0E0D082D083C0E0743C
:10122F0001141203A5D0E0C083C082C0E09012E980
:10123F0012039AD0E0D082D083C0E074011412035D
:10124F00A7D0E012115AC0E07401141203A5D0E028
:10125F00C083C082C0E09012FA12039AD0E0D0820D
:10126F00D0832220070122C207C0E07401141203A9
:10127F00A7D0E0C083C082C0E09012E912039AD0D9
:10128F00E0D082D083C0E07401141203A5D0E0C077
:10129F0083C082C0E09012E912039AD0E0D082D0CE
:1012AF0083C0E07401141203A7D0E0C083C082C0D2
:1012BF00E090130812039AD0E0D082D083C0E0747C
:1012CF0001141203A5D0E0C083C082C0E0901316B2
:1012DF0012039AD0E0D082D0832220202020202019
:1012EF002020202020202020202000543D2D2D2D97
:1012FF002D2020743D2D2D2D0053543D2D2D2D20AF
:10130F0020743D2D2D2D0052543D2D2D2D20207458
:10131F003D2D2D2D00494E49540052414D50310065
:10132F00534F414B0052414D5032005245464C4FA6
:0A133F005700434F4F4C494E470042
:00000001FF
