:03000000020C7679
:0E000B000209AE50524F46494C452C002C00C5
:10001900C0E0C0D0C000C001C002C033C032C0318E
:10002900C030E4F538F539F53AF53BF53C7A20E589
:1000390033A2E779047830E633F608D9FA790578F6
:1000490038E636D4F608D9F9DAE5D030D031D032ED
:10005900D033D002D001D000D0D0D0E022C0E0C04F
:10006900D0C000C001C002C03CC03BC03AC039C0CA
:10007900387A207905C3783CE613C0D030E70224EA
:10008900D030E30224FDF618D0D0D9EC79047833C6
:10009900E613F618D9FADADBD200E5387002C200A5
:1000A900D038D039D03AD03BD03CD002D001D000A2
:1000B900D0D0D0E022C0E0C0D0E5302534F530E51D
:1000C900313535F531E5323536F532E5333537F544
:1000D900339200D0D0D0E022C0E0C0D0C3E5309543
:1000E90034F530E5319535F531E5329536F532E5BA
:1000F900339537F5339200D0D0D0E022C0E0C0D09C
:10010900C3E5309534E5319535E5329536E53395D6
:10011900379200D0D0D0E022C0E0C0D0C3E53495FA
:1001290030E5359531E5369532E53795339200D08E
:10013900D0D0E022C0E0C0D0C200C3E53495307011
:1001490014E5359531700EE53695327008E5379529
:10015900337002D200D0D0D0E02212013D2000033A
:100169000201212212013D20000302010522C0E003
:10017900C0F0C0D0C000C001C002C003C004C005A7
:10018900E5308534F0A4F8A9F0E5318534F0A429E7
:10019900F9E435F0FAE5308535F0A429F9E5F03AC6
:1001A900FAE433FBE5328534F0A42AFAE5F03BFBA7
:1001B900E5318535F0A42AFAE5F03BFBE5308536D3
:1001C900F0A42AFAE5F03BFBE5338534F0A42BFBD8
:1001D900ACF07D00E5328535F0A42BFBE5F03CFC65
:1001E900E43DFDE5318536F0A42BFBE5F03CFCE46C
:1001F9003DFDE5308537F0A42BFBE5F03CFCE43D03
:10020900FDEC4DFCE5338535F0A445F04CFCE532B9
:100219008536F0A445F04CFCE5318537F0A445F06E
:100229004CFCE5338536F0A445F04CFCE5328537C6
:10023900F0A445F04CFCE5338537F0A445F04CFCBF
:100249008B338A3289318830D200BC0002C200D097
:1002590005D004D003D002D001D000D0D0D0F0D046
:10026900E022C0E0C0D0C000C001C002C003C00489
:10027900E5344535453645377005D2000202D6C208
:10028900007C20E4F8F9FAFBC3E53033F530E531B9
:1002990033F531E53233F532E53333F533E833F805
:1002A900E933F9EA33FAEB33FBC3E89534E99535D9
:1002B900EA9536EB95374013E89534F8E99535F921
:1002C900EA9536FAEB9537FB433001DCBBD004D015
:1002D90003D002D001D000D0D0D0E02285303485BF
:1002E900313585323685333722E530C534F530E589
:1002F90031C535F531E532C536F532E533C537F562
:0203090033229D
:10030B00C00078BE00000000D8FAD00022C000C0A8
:10031B0001793278DFD8FED9FADAF6D001D0002293
:10032B00D29112030BC29112030B22A2E79281A26C
:10033B00E69283A2E59285A2E4928712032BA2E3B5
:10034B009281A2E29283A2E19285A2E092871203AC
:10035B002B22D297020336C297020336C291C002F8
:10036B007A28120318D00274331203627433120307
:10037B006274321203627428120362740C120362E9
:10038B007401120362C0027A02120318D00222E433
:10039B0093600612035DA380F6224440448002035F
:1003AB0062C0E0E8C4540F443012035DE8540F44BC
:0703BB003012035DD0E022C7
:1003C200C0F9A4B0999282F880908883C6A1868EE3
:1003D2009003C2E53B453C6004D2EF8002C2EF309D
:1003E200FB2FE538540F93F591E538C4540F93F57C
:1003F20092E539540F93F593E539C4540F93F5946C
:10040200E53A540F93F58EE53AC4540F93F58F8075
:1004120024E53B540F93F591E53BC4540F93F592B9
:10042200E53C540F93F593E53CC4540F93F5947552
:100432008EFF758FFF227804C3E53833F538E5392E
:1004420033F539E53A33F53AE53B33F53BE53C33F1
:10045200F53CD8E45338F0EF540F4238227804C305
:10046200E53C13F53CE53B13F53BE53A13F53AE57C
:100472003913F539E53813F538D8E422780F794A7B
:100482007AFADAFED9FAD8F622E564B4000785389A
:100492005885395922B4010785385A85395B22B407
:1004A200020785385E85395F228538608539612289
:1004B200753A00753B00753C00E564B40007855849
:1004C2003885593922B40107855A38855B3922B4F7
:1004D2000207855E38855F39228560388561392259
:1004E200439B54439C01539CAB539DFE2220F90E27
:1004F20012047E20F90830F9FD12045FC322C29271
:10050200C294C296C2A0A2A282A482A682B05002C3
:10051200C32212047EA2A282A482A682B05002C387
:1005220022D292D294D296D2A030E803020603C21B
:100532009220A2097F0130A2FDD30206D520A40990
:100542007F0230A4FDD30206D520A6097F0330A680
:10055200FDD30206D520B0097F0A30B0FDD30206D2
:10056200D5D292C29420A2097F0430A2FDD3020602
:10057200D520A4097F0530A4FDD30206D520A60903
:100582007F0630A6FDD30206D520B0097F0B30B01E
:10059200FDD30206D5D294C29620A2097F0730A2CB
:1005A200FDD30206D520A4097F0830A4FDD302069C
:1005B200D520A6097F0930A6FDD30206D520B009B1
:1005C2007F0C30B0FDD30206D5D296C2A020A2097C
:1005D2007F0E30A2FDD30206D520A4097F0030A4ED
:1005E200FDD30206D520A6097F0F30A6FDD3020651
:1005F200D520B0097F0D30B0FDD30206D5D2A0C3FD
:1006020022C29220A2097F0A30A2FDD30206D5207F
:10061200A4097F0B30A4FDD30206D520A6097F0CC6
:1006220030A6FDD30206D520B0097F0D30B0FDD330
:100632000206D5D292C29420A2097F0330A2FDD332
:100642000206D520A4097F0630A4FDD30206D520D8
:10065200A6097F0930A6FDD30206D520B0097F0F77
:1006620030B0FDD30206D5D294C29620A2097F02F1
:1006720030A2FDD30206D520A4097F0530A4FDD304
:100682000206D520A6097F0830A6FDD30206D52092
:10069200B0097F0030B0FDD30206D5D296C2A020A9
:1006A200A2097F0130A2FDD30206D520A4097F044E
:1006B20030A4FDD30206D520A6097F0730A6FDD3BC
:1006C2000206D520B0097F0E30B0FDD30206D5D286
:1006D200A0C322EFB40A0B12048B7564001204B299
:1006E200C322B40B0B12048B7564011204B2C32231
:1006F200B40C0B12048B7564021204B2C322B40D43
:100702000B12048B7564031204B2C322B40E0512D9
:10071200045FC322B40F0DE4F538F539F53AF53B21
:05072200F53CC322229A
:10072700C2CA75C83075CBFF75CAF7D2CA75985259
:10073700223099FDC299F59922E493600612073891
:10074700A380F6229003C2E539C4540F93F594E5CC
:1007570039540F93F593E538C4540F93547FF592AA
:10076700E538540F93F59122C0E07401141203A5E4
:10077700D0E0745412035D743D12035DC030C03184
:10078700C032C033120019E539C4540F6007443032
:1007970012035D8006E539540F600BE539540F44A9
:1007A7003012035D8007E538C4540F600AE538C48A
:1007B700540F443012035DE538540F443012035D83
:1007C700742E12035D743012035DD033D032D031F2
:1007D700D03022E539C4540F4430120738E5395474
:1007E7000F4430120738E538C4540F443012073825
:1007F700742E120738E538540F4430120738740D39
:10080700120738740A12073822743012035D74789D
:1008170012035DE533C4540F2490D43440D412033B
:100827005DE533540F2490D43440D412035DE53290
:10083700C4540F2490D43440D412035DE532540FCE
:100847002490D43440D412035DE531C4540F24906E
:10085700D43440D412035DE531540F2490D434408E
:10086700D412035DE530C4540F2490D43440D4121D
:10087700035DE530540F2490D43440D412035D2235
:1008870090000E120740E559C4540F443012073840
:10089700E559540F4430120738E558C4540F443013
:1008A700120738E558540F4430120738742C1207D2
:1008B70038E55BC4540F4430120738E55B540F44E6
:1008C70030120738E55AC4540F4430120738E55A36
:1008D700540F4430120738742C120738E55FC4549C
:1008E7000F4430120738E55F540F4430120738E5DC
:1008F7005EC4540F4430120738E55E540F4430127B
:100907000738742C120738E561C4540F44301207B6
:1009170038E561540F4430120738E560C4540F447A
:1009270030120738E560540F4430120738740D123F
:080937000738740A1207382288
:10093F00E3FBFAA7FBFAE3FBFAA7FBFAE3FBFA41A7
:10094F00FDFAA7FBFAD0FAFAD6F9FAD205D2067554
:10095F00320090093F753300E493F531A3E493F52A
:10096F0030A3E493F533A3C002AA33120318D002C5
:0C097F000532E532B409E1C205C20622CF
:10098B00546D706572617475726520546573740073
:10099B00E58954F04401F589758CF5758A68D2A9FF
:1009AB00D28C2220060CC28C758CF5758A68D28C81
:1009BB00800AC28C85308C85318AD28C300505B289
:1009CB00840209F30565E565B4FA1DD20305667566
:1009DB006500E566B4041175660005670568E56892
:1009EB00B43C05056975680032C0F9A4B0999282D0
:1009FB00F880909009F4E8C4540F93F592E8540FE3
:100A0B0093F591229009F4E8C4540F93F594E854AC
:100A1B000F93F593229009F4E8C4540F93F58FE8E4
:100A2B00540F93F58E2275F06484F9E5F075F00A96
:100A3B0084C454F045F0F822855838855939753AF5
:100A4B0000753B00120066753482753500753600F3
:100A5B007537001201053000157530827531007540
:100A6B00320075330012001985385885395985586D
:100A7B0038855939753A00753B001200667534AAF2
:100A8B00753500753600753700120121300015756C
:100A9B0030AA753100753200753300120019853894
:100AAB0058853959855A38855B39753A00753B003D
:100ABB0012006675343C75350075360075370012BB
:100ACB00010530001575303C7531007532007533FA
:100ADB000012001985385A85395B855A38855B3980
:100AEB00753A00753B0012006675347875350075E4
:100AFB0036007537001201213000157530787531CD
:100B0B000075320075330012001985385A85395B30
:100B1B00855E38855F39753A00753B001200667546
:100B2B0034E6753500753600753700120105300057
:100B3B00157530E6753100753200753300120019EA
:100B4B0085385E85395F855E38855F39753A007506
:100B5B003B001200667534F075350075360075373D
:100B6B00001201213000157530F07531007532001F
:100B7B0075330012001985385E85395F85603885BD
:100B8B006139753A00753B0012006675341E753578
:100B9B000075360075370012010530001575301ED3
:100BAB007531007532007533001200198538608578
:100BBB003961856038856139753A00753B001200E3
:100BCB006675342D753500753600753700120121A9
:100BDB0030001575302D75310075320075330012EC
:100BEB00001985386085396122C2AF12099B120743
:100BFB002712036775817F75E800759500756A008C
:100C0B00C280C200C201D202C203D204C205C20614
:100C1B00756900756800756600756CE0756B3675E7
:100C2B005800755900755A00755B00755E00755F4D
:100C3B0000756000756100755200755300755400A6
:100C4B007555007546007547007548007549007568
:100C5B004200754300754400754500756400C2AFD2
:100C6B001204B21204E2D2AFD2AF22759ABB759BBB
:100C7B0082120BF4759AAA759B82120367C0E074FB
:100C8B0001141203A7D0E0C083C082C0E090098B8F
:100C9B0012039AD0E0D082D08390098B1207407454
:100CAB000D120738740A12073875A18012047E02E0
:100CBB000CFDC2AF8567307531007532007533009E
:100CCB00120019A8381209FE85683075310075328B
:100CDB0000753300120019A838120A0F8569307598
:100CEB003100753200753300120019A838120A2032
:100CFB00D2AF2004053003028003020E1AC203C2D6
:100D0B00AF75A10075330075320085A33185A23014
:100D1B007534887535137536007537001201777584
:100D2B00340075351075360075370012026B85303F
:100D3B004A85314B85324C85334D75A10175330096
:100D4B0075320085A33185A23075348875351375DE
:100D5B00360075370012017775340075351075360E
:100D6B000075370012026B75340A75350075360045
:100D7B0075370012026B75341175350175360075B8
:100D8B0037001200E185304E85314F853250853367
:100D9B0051854A30854B31854C32854D3375341036
:100DAB0075352775360075370012017775340C755C
:100DBB00353075360075370012026B85303485314E
:100DCB0035853236853337854E30854F31855032F8
:100DDB00855133C034C035C036C03775340A7535CC
:100DEB0000753600753700120177D037D036D03505
:100DFB00D0341200BE853052853153853254853341
:100E0B005512001912074B12076F1207DAD2AF20D7
:100E1B00040F20820C12047E2082063082FD756A3C
:100E2B0000300213C202C2AF756700D2AFD20512F7
:100E3B00047E12047EC20575E800E56AB4000280E8
:100E4B0003020E8ED2E8C280D204C2AF1204EF129C
:100E5B0003D25003120438D2AF20E81120820B12B8
:100E6B00047E2082053082FD8003021125C2AF1261
:100E7B000A43120887D2AF756400D202C204056A16
:100E8B00021125E56AB401028003020F33D2E9D2C5
:100E9B0080C2AF75303C75310075320075330085FB
:100EAB006734753500753600753700120121300037
:100EBB0023C20085523085533185543285553375A5
:100ECB003432753500753600753700120105300068
:100EDB0003756A00C200855838855939753A007513
:100EEB003B00753C0012006675340A75350075368B
:100EFB0000753700120177853034853135853236F0
:100F0B00853337855230855331855432855533C2FD
:100F1B0000120121D2AF20E9083000028003021138
:100F2B0025D202056A021125E56AB402028003028A
:100F3B000FE4D2EAC2AF855A38855B39753A007532
:100F4B003B00753C0012006685305C85315D753069
:100F5B0014753100753200753300855A34855B3555
:100F6B007536007537001201777534647535007569
:100F7B00360075370012026B853056853157856701
:100F8B003075310075320075330085563485573511
:100F9B00753600753700C200120121D2AF30000444
:100FAB00C2808002D280C2AF856730753100753246
:100FBB0000753300855C34855D35753600753700FB
:100FCB00C200120121D2AF20EA08300002800302D6
:100FDB001125D202056A021125E56AB40358D2EB3A
:100FEB00D280C2AF855E38855F39753A00753B009C
:100FFB00753C0012006675340A7535007536007540
:10100B00370012017785303485313585323685339B
:10101B0037855234855335855436855537C2001282
:10102B000121D2AF20EB082000028003021125D250
:10103B0002056A021125E56AB4040280030210ED71
:10104B00D2ECC2AF856038856139753A00753B00CB
:10105B00753C0012006685306285316375301475FE
:10106B003100753200753300856234856335753612
:10107B0000753700120177753464753500753600CD
:10108B0075370012026B8530568531578567307581
:10109B0031007532007533008556348557357536FA
:1010AB0000753700C200120121D2AF300004C2809C
:1010BB008002D280C2AF8562308563317532007594
:1010CB003300856734753500753600753700C200FF
:1010DB00120121D2AF20EC0320003FD202056A029D
:1010EB001125E56AB40533D2EDC280C2AF8552300B
:1010FB0085533185543285553375345875350275A2
:10110B003600753700C200120105D2AF20ED033057
:0D111B000008D202756A0012095A020CBACF
:00000001FF
