:030000000200F803
:0100030032CA
:03000B0002009F51
:0100130032BA
:01001B0032B2
:0100230032AA
:03002B000200C10F
:10002E00F5A20190F6C30190F7C50190F83B01903F
:10003E00F9140190F9D60190FA820190FAD0025883
:10004E00C0E0C083C082E532232354FC90002E937F
:10005E00F535E532232354FC0493F536E53223239C
:10006E0054FC240293F538E532232354FC240393E5
:10007E00F537E4F533F53485358C85368AD28CD058
:10008E0082D083D0E022E58954F04401F589D2A9CB
:10009E002285358C85368AB2843275C80075CDF5C9
:1000AE0075CC2775CBF575CA27E4F530F531D2AD91
:1000BE00D2CA22C2CFB291C0E0C0D03000270533E1
:1000CE00E53370020534E533B5371AE534B5381526
:1000DE00E53204B4080AC200C28CC284D2E880059C
:1000EE00F53212004ED0D0D0E03275817F759A1065
:1000FE00759B0275E8007595001200941200A875A4
:10010E003200C200D2AF20F9FD30F9FD2000F7C257
:0B011E00E875320012004ED20080EBAA
:00000001FF
