:030000000208757E
:03000B0002076287
:03002B0002078346
:10002E00C0E0C0D0C000C001C002C033C032C03179
:10003E00C030E4F538F539F53AF53BF53C7A20E574
:10004E0033A2E779047830E633F608D9FA790578E1
:10005E0038E636D4F608D9F9DAE5D030D031D032D8
:10006E00D033D002D001D000D0D0D0E022C0E0C03A
:10007E00D0C000C001C002C03CC03BC03AC039C0B5
:10008E00387A207905C3783CE613C0D030E70224D5
:10009E00D030E30224FDF618D0D0D9EC79047833B1
:1000AE00E613F618D9FADADBD200E5387002C20090
:1000BE00D038D039D03AD03BD03CD002D001D0008D
:1000CE00D0D0D0E022C0E0C0D0E5302534F530E508
:1000DE00313535F531E5323536F532E5333537F52F
:1000EE00339200D0D0D0E022C0E0C0D0C3E530952E
:1000FE0034F530E5319535F531E5329536F532E5A5
:10010E00339537F5339200D0D0D0E022C0E0C0D086
:10011E00C3E5309534E5319535E5329536E53395C1
:10012E00379200D0D0D0E022C0E0C0D0C3E53495E5
:10013E0030E5359531E5369532E53795339200D079
:10014E00D0D0E022C0E0C0D0C200C3E534953070FC
:10015E0014E5359531700EE53695327008E5379514
:10016E00337002D200D0D0D0E02212015220000310
:10017E000201362212015220000302011A22C0E0AF
:10018E00C0F0C0D0C000C001C002C003C004C00592
:10019E00E5308534F0A4F8A9F0E5318534F0A429D2
:1001AE00F9E435F0FAE5308535F0A429F9E5F03AB1
:1001BE00FAE433FBE5328534F0A42AFAE5F03BFB92
:1001CE00E5318535F0A42AFAE5F03BFBE5308536BE
:1001DE00F0A42AFAE5F03BFBE5338534F0A42BFBC3
:1001EE00ACF07D00E5328535F0A42BFBE5F03CFC50
:1001FE00E43DFDE5318536F0A42BFBE5F03CFCE457
:10020E003DFDE5308537F0A42BFBE5F03CFCE43DED
:10021E00FDEC4DFCE5338535F0A445F04CFCE532A4
:10022E008536F0A445F04CFCE5318537F0A445F059
:10023E004CFCE5338536F0A445F04CFCE5328537B1
:10024E00F0A445F04CFCE5338537F0A445F04CFCAA
:10025E008B338A3289318830D200BC0002C200D082
:10026E0005D004D003D002D001D000D0D0D0F0D031
:10027E00E022C0E0C0D0C000C001C002C003C00474
:10028E00E5344535453645377005D2000202EBC2DE
:10029E00007C20E4F8F9FAFBC3E53033F530E531A4
:1002AE0033F531E53233F532E53333F533E833F8F0
:1002BE00E933F9EA33FAEB33FBC3E89534E99535C4
:1002CE00EA9536EB95374013E89534F8E99535F90C
:1002DE00EA9536FAEB9537FB433001DCBBD004D000
:1002EE0003D002D001D000D0D0D0E02285303485AA
:1002FE00313585323685333722E530C534F530E574
:10030E0031C535F531E532C536F532E533C537F54C
:02031E00332288
:10032000C00078BE00000000D8FAD00022C000C093
:1003300001793278DFD8FED9FADAF6D001D000227E
:10034000D291120320C29112032022A2E79281A22D
:10035000E69283A2E59285A2E49287120340A2E38B
:100360009281A2E29283A2E19285A2E09287120397
:100370004022D29702034BC29702034BC291C002A4
:100380007A2812032DD002743312037774331203C8
:100390007774321203777428120377740C12037780
:1003A0007401120377C0027A0212032DD00222E4F4
:1003B000936006120372A380F62244404480020335
:1003C00077C0E0E8C4540F4430120372E8540F447D
:1003D00030120372D0E0227401120377C0027A0255
:0A03E00012032DD002221203AF22F7
:1003EA00C0F9A4B0999282F880908883C6A1868EBB
:1003FA009003EAE53B453C6004D2EF8002C2EF304D
:10040A00FB2FE538540F93F591E538C4540F93F553
:10041A0092E539540F93F593E539C4540F93F59443
:10042A00E53A540F93F58EE53AC4540F93F58F804D
:10043A0024E53B540F93F591E53BC4540F93F59291
:10044A00E53C540F93F593E53CC4540F93F594752A
:10045A008EFF758FFF227804C3E53833F538E53906
:10046A0033F539E53A33F53AE53B33F53BE53C33C9
:10047A00F53CD8E45338F0EF540F4238227804C3DD
:10048A00E53C13F53CE53B13F53BE53A13F53AE554
:10049A003913F539E53813F538D8E422780F794A53
:1004AA007AFADAFED9FAD8F622E558B4000785387E
:1004BA005085395122B4010785385285395322B4FF
:1004CA000207853854853955228538568539572289
:1004DA00753A00753B00753C00E558B40007855035
:1004EA003885513922B4010785523885533922B4E7
:1004FA000207855438855539228556388557392259
:10050A00439B54439C01539CAB539DFE2220F90EFE
:10051A001204A620F90830F9FD120487C322C292F8
:10052A00C294C296C2A0A2A282A482A682B050029B
:10053A00C3221204A6A2A282A482A682B05002C337
:10054A0022D292D294D296D2A030E80302062BC2CB
:10055A009220A2097F0130A2FDD30206FD20A40940
:10056A007F0230A4FDD30206FD20A6097F0330A630
:10057A00FDD30206FD20B0097F0A30B0FDD3020682
:10058A00FDD292C29420A2097F0430A2FDD30206B2
:10059A00FD20A4097F0530A4FDD30206FD20A6098B
:1005AA007F0630A6FDD30206FD20B0097F0B30B0CE
:1005BA00FDD30206FDD294C29620A2097F0730A27B
:1005CA00FDD30206FD20A4097F0830A4FDD302064C
:1005DA00FD20A6097F0930A6FDD30206FD20B00939
:1005EA007F0C30B0FDD30206FDD296C2A020A2092C
:1005FA007F0E30A2FDD30206FD20A4097F0030A49D
:10060A00FDD30206FD20A6097F0F30A6FDD3020600
:10061A00FD20B0097F0D30B0FDD30206FDD2A0C384
:10062A0022C29220A2097F0A30A2FDD30206FD202F
:10063A00A4097F0B30A4FDD30206FD20A6097F0C76
:10064A0030A6FDD30206FD20B0097F0D30B0FDD3E0
:10065A000206FDD292C29420A2097F0330A2FDD3E2
:10066A000206FD20A4097F0630A4FDD30206FD2060
:10067A00A6097F0930A6FDD30206FD20B0097F0F27
:10068A0030B0FDD30206FDD294C29620A2097F02A1
:10069A0030A2FDD30206FD20A4097F0530A4FDD3B4
:1006AA000206FD20A6097F0830A6FDD30206FD201A
:1006BA00B0097F0030B0FDD30206FDD296C2A02059
:1006CA00A2097F0130A2FDD30206FD20A4097F04FE
:1006DA0030A4FDD30206FD20A6097F0730A6FDD36C
:1006EA000206FD20B0097F0E30B0FDD30206FDD20E
:1006FA00A0C322EFB40A0B1204B37558001204DA2D
:10070A00C322B40B0B1204B37558011204DAC322C4
:10071A00B40C0B1204B37558021204DAC322B40DD6
:10072A000B1204B37558031204DAC322B40E05126D
:10073A000487C322B40F0DE4F538F539F53AF53BD1
:05074A00F53CC3222272
:10074F00E58954F04401F589855A8C85598AD2A9D7
:10075F00D28C22C28C855A8C85598AD28CB2843223
:10076F0075C80075CDF575CC2775CBF575CA27D231
:10077F00ADD2CA22C2CF055BE55BB4FA1B055C752F
:10078F005B00E55CB40411755C00055D055EE55E1C
:10079F00B43C05055F755E0032C0F9A4B099928232
:1007AF00F880909007A8E8C4540F93F592E8540F7F
:1007BF0093F591229007A8E8C4540F93F594E85449
:1007CF000F93F593229007A8E8C4540F93F58FE881
:1007DF00540F93F58E2275F06484F9E5F075F00AE5
:1007EF0084C454F045F0F822C2AF12076F12037C95
:1007FF0075817F75E80075950075817F756000C202
:10080F0080C200C201D202755F00755E00755C0088
:10081F007550967551007552057553007554827554
:10082F005500755605755700754A00754B00754C88
:10083F0000754D00754600754700754800754900F5
:10084F00754200754300754400754500755800C228
:10085F00AF1204DA12050AD2AF755A807559D8C291
:10086F008CC2A9D2AF22759A011207F70208BEC235
:10087F00AF855D3075310075320075330012002E73
:10088F00A8381207B2855E307531007532007533A6
:10089F000012002EA8381207C3855F30753100751E
:1008AF00320075330012002EA8381207D4D2AFC20F
:1008BF00AF75A10075330075320085A33185A23065
:1008CF0075347C7535C475360075370012018C751B
:1008DF003400753510753600753700120280753487
:1008EF00A475356A7536007537001200F6753464D5
:1008FF0075350075360075370012018C85304685C9
:10090F00314785324885334975A1017533007532FA
:10091F000085A33185A230753400753530753600EA
:10092F0075370012018C75340075351075360075EA
:10093F00370012028085304285314385324485333A
:10094F00458542308543318544328545338546346C
:10095F008547358548368549371200D385304A8516
:10096F00314B85324C85334DD2AF300209C202C2B2
:10097F00AF755D00D2AFE56075E800B40025C2AF7A
:10098F001205171203FA5003120460D2AFD2E8C255
:10099F008020E8082082028003020B82D2020560C9
:1009AF00020B82B40137D2E9D280C2AF75304A75DB
:1009BF0031007532007533008550348551357536E9
:1009CF0000753700C200120136D2AF20E90830009F
:1009DF00028003020B82D2020560020B82B4020274
:1009EF008003020A83D2EAC2AF75301475310075E5
:1009FF00320075330085523485533575360075379F
:100A0F000012018C7534647535007536007537002A
:100A1F0012028085304E85314F855D3075310075FE
:100A2F003200753300854E34854F35753600753776
:100A3F0000C200120136D2AF300004D2808002C251
:100A4F0080C2AF855D30753100753200753300851A
:100A5F005234855335753600753700C20012013692
:100A6F00D2AF20EA083000028003020B82D20205C7
:100A7F0060020B82B40337D2EBD280C2AF85543001
:100A8F0085553175320075330075344A75350075EB
:100A9F003600753700C200120136D2AF20EB0820A6
:100AAF0000028003020B82D2020560020B82B404A3
:100ABF00028003020B4FD2ECC2AF753014753100B8
:100ACF007532007533008556348557357536007588
:100ADF00370012018C753464753500753600753723
:100AEF000012028085304E85314F855D30753100A3
:100AFF00753200753300854E34854F357536007568
:100B0F003700C200120136D2AF300004D28080020B
:100B1F00C280C2AF855630855731753200753300AC
:100B2F00855D34753500753600753700C2001201CA
:100B3F0036D2AF20EC0320003AD2020560020B82BE
:100B4F00B40530D2EDC280C2AF75304A7531007531
:100B5F00320075330075343C7535007536007537C6
:100B6F0000C20012011AD2AF20ED03300005D202ED
:060B7F0075600002087B16
:00000001FF
