:0300000002036890
:10000300C0F9A4B0999282F880908883C6A1868EA5
:10001300900003E53345346004D2EF8002C2EF3031
:10002300FB2FE530540F93F591E530C4540F93F54E
:1000330092E531540F93F593E531C4540F93F5943E
:10004300E532540F93F58EE532C4540F93F58F8048
:1000530024E533540F93F591E533C4540F93F5928C
:10006300E534540F93F593E534C4540F93F5947525
:100073008EFF758FFF227804C3E53033F530E53109
:1000830033F531E53233F532E53333F533E53433E4
:10009300F534D8E45330F0EF540F4230227804C3E0
:1000A300E53413F534E53313F533E53213F532E56F
:1000B3003113F531E53013F530D8E422780F794A5E
:1000C3007AFADAFED9FAD8F622E53DB4000785308C
:1000D3003585313622B4010785303785313822B46E
:1000E300020785303985313A2285303B85313C2200
:1000F300753200753300753400E53DB4000785356E
:100103003085363122B4010785373085383122B442
:100113000207853930853A3122853B30853C3122CF
:10012300439B54439C01539CAB539DFE2220F90EE9
:100133001200BF20F90830F9FD1200A0C322C292B9
:10014300C294C296C2A0A2A282A482A682B0500286
:10015300C3221200BFA2A282A482A682B05002C30D
:1001630022D292D294D296D2A030E803020244C2A1
:100173009220A2097F0130A2FDD302031620A40915
:100183007F0230A4FDD302031620A6097F0330A605
:10019300FDD302031620B0097F0A30B0FDD302035A
:1001A30016D292C29420A2097F0430A2FDD3020387
:1001B3001620A4097F0530A4FDD302031620A60947
:1001C3007F0630A6FDD302031620B0097F0B30B0A3
:1001D300FDD3020316D294C29620A2097F0730A250
:1001E300FDD302031620A4097F0830A4FDD3020324
:1001F3001620A6097F0930A6FDD302031620B009F5
:100203007F0C30B0FDD3020316D296C2A020A20900
:100213007F0E30A2FDD302031620A4097F0030A471
:10022300FDD302031620A6097F0F30A6FDD30203D8
:100233001620B0097F0D30B0FDD3020316D2A0C340
:1002430022C29220A2097F0A30A2FDD30203162004
:10025300A4097F0B30A4FDD302031620A6097F0C4B
:1002630030A6FDD302031620B0097F0D30B0FDD3B5
:10027300020316D292C29420A2097F0330A2FDD3B7
:1002830002031620A4097F0630A4FDD3020316201F
:10029300A6097F0930A6FDD302031620B0097F0FFC
:1002A30030B0FDD3020316D294C29620A2097F0276
:1002B30030A2FDD302031620A4097F0530A4FDD389
:1002C30002031620A6097F0830A6FDD302031620D9
:1002D300B0097F0030B0FDD3020316D296C2A0202E
:1002E300A2097F0130A2FDD302031620A4097F04D3
:1002F30030A4FDD302031620A6097F0730A6FDD341
:1003030002031620B0097F0E30B0FDD3020316D2CC
:10031300A0C322EFB40A0B1200CC753D001200F308
:10032300C322B40B0B1200CC753D011200F3C322A0
:10033300B40C0B1200CC753D021200F3C322B40DB2
:100343000B1200CC753D031200F3C322B40E051249
:1003530000A0C322B40F0DE4F530F531F532F533C7
:10036300F534C3222275817FE4F5E8F595F530F580
:1003730031F532F533F534F535F536F537F538F52E
:1003830039F53AF53BF53C753D001200F3120123B4
:0E03930012013012001350F812007902039389
:00000001FF
