:0300000002018872
:0100030032CA
:03000B0002010BE4
:0100130032BA
:01001B0032B2
:0100230032AA
:03002B0002012DA2
:10002E00C00078BE00000000D8FAD00022C000C088
:10003E0001793278DFD8FED9FADAF6D001D0002273
:10004E00D2B312002EC2B312002E22A2E792A3A2A6
:10005E00E692A5A2E592A7A2E492B112004EA2E307
:10006E0092A3A2E292A5A2E192A7A2E092B11200FF
:10007E004E22D2B7020059C2B7020059C2B3C2B55E
:10008E00C0027A2812003BD00274331200857433FA
:10009E0012008574321200857428120085740C12B9
:1000AE0000857401120085C0027A0212003BD00254
:1000BE0022E4936006120080A380F622444044801E
:1000CE00020085C0E0E8C4540F4430120080E854AA
:1000DE000F4430120080D0E0224243445F636F75BC
:1000EE006E7465723A2078782000E58954F04401E8
:1000FE00F589758CFD758A5AD2A9D28C22758CFD24
:10010E00758A5AB2843275C80075CDF575CC2775CF
:10011E00CBF575CA27E4F530F531D2ADD2CA22C27D
:10012E00CFB291C0E0C0D00530E53070020531E5A8
:10013E0030B4F41EE531B40119D200B2E8B28CE449
:10014E00F530F531E53220E804240180022499D4FB
:10015E00F532D0D0D0E032C0F9A4B0999282F880B6
:10016E00908883C6A1868E900165E532C4540F93A4
:10017E00F592E532540F93F5912275817F1200F8B6
:10018E00120114759A7F759B22759CFF759DFF75E4
:10019E00E800759500D2AF12008AC0E07401141207
:1001AE0000CCD0E0C083C082C0E09000E71200BF58
:1001BE00D0E0D082D083D20075320020F91CC0026C
:1001CE007A3212003BD00220F91030F9FDC2CAE497
:1001DE00F530F531F532D2CA80033000DEC200C0F0
:1001EE00E0740E141200CCD0E0C000A8321200D180
:0801FE00D0001201750201C9D5
:00000001FF
