:0300000002136781
:10000B0002108B50524F46494C452C002C0020209F
:10001B0020202020202020202020202020200049CC
:10002B004E49542020200052414D50312020005386
:10003B004F414B2020200052414D50322020005286
:10004B0045464C4F572000434F4F4C532020004305
:10005B004F4F4B494E4700444F4E45202020002028
:07006B0020202020202000CE
:10007200C0E0C0D0C000C001C002C033C032C03135
:10008200C030E4F538F539F53AF53BF53C7A20E530
:1000920033A2E779047830E633F608D9FA7905789D
:1000A20038E636D4F608D9F9DAE5D030D031D03294
:1000B200D033D002D001D000D0D0D0E022C0E0C0F6
:1000C200D0C000C001C002C03CC03BC03AC039C071
:1000D200387A207905C3783CE613C0D030E7022491
:1000E200D030E30224FDF618D0D0D9EC790478336D
:1000F200E613F618D9FADADBD200E5387002C2004C
:10010200D038D039D03AD03BD03CD002D001D00048
:10011200D0D0D0E022C0E0C0D0E5302534F530E5C3
:10012200313535F531E5323536F532E5333537F5EA
:10013200339200D0D0D0E022C0E0C0D0C3E53095E9
:1001420034F530E5319535F531E5329536F532E560
:10015200339537F5339200D0D0D0E022C0E0C0D042
:10016200C3E5309534E5319535E5329536E533957D
:10017200379200D0D0D0E022C0E0C0D0C3E53495A1
:1001820030E5359531E5369532E53795339200D035
:10019200D0D0E022C0E0C0D0C200C3E534953070B8
:1001A20014E5359531700EE53695327008E53795D0
:1001B200337002D200D0D0D0E02212019620000388
:1001C20002017A2212019620000302015E22C0E09F
:1001D200C0F0C0D0C000C001C002C003C004C0054E
:1001E200E5308534F0A4F8A9F0E5318534F0A4298E
:1001F200F9E435F0FAE5308535F0A429F9E5F03A6D
:10020200FAE433FBE5328534F0A42AFAE5F03BFB4D
:10021200E5318535F0A42AFAE5F03BFBE530853679
:10022200F0A42AFAE5F03BFBE5338534F0A42BFB7E
:10023200ACF07D00E5328535F0A42BFBE5F03CFC0B
:10024200E43DFDE5318536F0A42BFBE5F03CFCE412
:100252003DFDE5308537F0A42BFBE5F03CFCE43DA9
:10026200FDEC4DFCE5338535F0A445F04CFCE53260
:100272008536F0A445F04CFCE5318537F0A445F015
:100282004CFCE5338536F0A445F04CFCE53285376D
:10029200F0A445F04CFCE5338537F0A445F04CFC66
:1002A2008B338A3289318830D200BC0002C200D03E
:1002B20005D004D003D002D001D000D0D0D0F0D0ED
:1002C200E022C0E0C0D0C000C001C002C003C00430
:1002D200E5344535453645377005D20002032FC255
:1002E200007C20E4F8F9FAFBC3E53033F530E53160
:1002F20033F531E53233F532E53333F533E833F8AC
:10030200E933F9EA33FAEB33FBC3E89534E995357F
:10031200EA9536EB95374013E89534F8E99535F9C7
:10032200EA9536FAEB9537FB433001DCBBD004D0BB
:1003320003D002D001D000D0D0D0E0228530348565
:10034200313585323685333722E530C534F530E52F
:1003520031C535F531E532C536F532E533C537F508
:02036200332244
:10036400C00078BE00000000D8FAD00022C000C04F
:1003740001793278DFD8FED9FADAF6D001D000223A
:10038400D291120364C29112036422A2E79281A261
:10039400E69283A2E59285A2E49287120384A2E303
:1003A4009281A2E29283A2E19285A2E09287120353
:1003B4008422D29702038FC29702038FC291C00294
:1003C4007A28120371D00274331203BB74331203FC
:1003D400BB74321203BB74281203BB740C1203BB2C
:1003E40074011203BBC0027A02120371D00222E428
:1003F4009360061203B6A380F622444044800203AD
:10040400BBC0E0E8C4540F44301203B6E8540F44B0
:07041400301203B6D0E02214
:10041B00C0F9A4B0999282F880908883C6A1868E89
:10042B0090041BE53B453C6004D2EF8002C2EF30E9
:10043B00FB2FE538540F93F591E538C4540F93F522
:10044B0092E539540F93F593E539C4540F93F59412
:10045B00E53A540F93F58EE53AC4540F93F58F801C
:10046B0024E53B540F93F591E53BC4540F93F59260
:10047B00E53C540F93F593E53CC4540F93F59475F9
:10048B008EFF758FFF227804C3E53833F538E539D5
:10049B0033F539E53A33F53AE53B33F53BE53C3398
:1004AB00F53CD8E45338F0EF540F4238227804C3AC
:1004BB00E53C13F53CE53B13F53BE53A13F53AE523
:1004CB003913F539E53813F538D8E422780F794A22
:1004DB007AFADAFED9FAD8F622E55CB40007853849
:1004EB005085395122B4010785385285395322B4CE
:1004FB000207853856853957228538588539592250
:10050B00753A00753B00753C00E55CB400078550FF
:10051B003885513922B4010785523885533922B4B5
:10052B00020785563885573922855838855939221F
:10053B00439B54439C01539CAB539DFE2220F90ECD
:10054B001204D720F90830F9FD1204B8C322C29265
:10055B00C294C296C2A0A2A282A482A682B050026A
:10056B00C3221204D7A2A282A482A682B05002C3D5
:10057B0022D292D294D296D2A030E80302065CC269
:10058B009220A2097F0130A2FDD302072E20A409DD
:10059B007F0230A4FDD302072E20A6097F0330A6CD
:1005AB00FDD302072E20B0097F0A30B0FDD302071E
:1005BB002ED292C29420A2097F0430A2FDD302074F
:1005CB002E20A4097F0530A4FDD302072E20A609F7
:1005DB007F0630A6FDD302072E20B0097F0B30B06B
:1005EB00FDD302072ED294C29620A2097F0730A218
:1005FB00FDD302072E20A4097F0830A4FDD30207E8
:10060B002E20A6097F0930A6FDD302072E20B009A4
:10061B007F0C30B0FDD302072ED296C2A020A209C8
:10062B007F0E30A2FDD302072E20A4097F0030A439
:10063B00FDD302072E20A6097F0F30A6FDD302079C
:10064B002E20B0097F0D30B0FDD302072ED2A0C3F0
:10065B0022C29220A2097F0A30A2FDD302072E20CC
:10066B00A4097F0B30A4FDD302072E20A6097F0C13
:10067B0030A6FDD302072E20B0097F0D30B0FDD37D
:10068B0002072ED292C29420A2097F0330A2FDD37F
:10069B0002072E20A4097F0630A4FDD302072E20CB
:1006AB00A6097F0930A6FDD302072E20B0097F0FC4
:1006BB0030B0FDD302072ED294C29620A2097F023E
:1006CB0030A2FDD302072E20A4097F0530A4FDD351
:1006DB0002072E20A6097F0830A6FDD302072E2085
:1006EB00B0097F0030B0FDD302072ED296C2A020F6
:1006FB00A2097F0130A2FDD302072E20A4097F049B
:10070B0030A4FDD302072E20A6097F0730A6FDD308
:10071B0002072E20B0097F0E30B0FDD302072ED278
:10072B00A0C322EFB40A0B1204E4755C0012050B94
:10073B00C322B40B0B1204E4755C0112050BC3222C
:10074B00B40C0B1204E4755C0212050BC322B40D3E
:10075B000B1204E4755C0312050BC322B40E0512D5
:10076B0004B8C322B40F0DE4F538F539F53AF53B6F
:05077B00F53CC3222241
:10078000C2CA75C83075CBFF75CAF7D2CA75985200
:10079000223099FDC299F59922E4936006120791DF
:1007A000A380F62290041BE539C4540F93F594E519
:1007B00039540F93F593E538C4540F93547FF59251
:1007C000E538540F93F5912274541203B6743D1218
:1007D00003B6C030C031C032C033120072E539C434
:1007E000540F600744301203B68006E539540F6099
:1007F0000BE539540F44301203B68007E538C45472
:100800000F600FE538C4540F44301203B6742E1233
:1008100003B6E538540F44301203B6D033D032D08B
:1008200031D03022E539C4540F4430120791E539F4
:10083000540F4430120791E538C4540F4430120766
:1008400091742E120791E538540F443012079174B9
:100850000D120791740A1207912274301203B674B4
:10086000781203B6E533C4540F2490D43440D41224
:1008700003B6E533540F2490D43440D41203B6E5C4
:1008800032C4540F2490D43440D41203B6E5325409
:100890000F2490D43440D41203B6E531C4540F244D
:1008A00090D43440D41203B6E531540F2490D4349C
:1008B00040D41203B6E530C4540F2490D43440D44D
:1008C0001203B6E530540F2490D43440D41203B64A
:1008D0002290000E120799E551C4540F44301207BC
:1008E00091E551540F4430120791E550C4540F4420
:1008F00030120791E550540F4430120791742C12B6
:100900000791E553C4540F4430120791E553540F37
:100910004430120791E552C4540F4430120791E558
:1009200052540F4430120791742C120791E557C4AA
:10093000540F4430120791E557540F443012079179
:10094000E556C4540F4430120791E556540F443015
:10095000120791742C120791E559C4540F443012B8
:100960000791E559540F4430120791E558C4540FCC
:100970004430120791E558540F4430120791740D1A
:09098000120791740A120791227A
:10098900413A2000423A2000433A2000443A2000EC
:10099900546F7420005374202000C0E0C0E074013B
:1009A90014120400D0E0C0E074531203B6D0E0C0C2
:1009B900E074541203B6D0E0C0E0743D1203B6D01F
:1009C900E0E551540F44301203B6E550C4540F44C6
:1009D900301203B6E550540F44301203B6C0E07428
:1009E900201203B6D0E0C0E074201203B6D0E0C0F4
:1009F900E074741203B6D0E0C0E0743D1203B6D0BF
:100A0900E0E553540F44301203B6E552C4540F4481
:100A1900301203B6E552540F44301203B6C0E074E5
:100A2900201203B6D0E0C0E074201203B6D0E0C0B3
:100A3900E074201203B6D0E0D0E022C0E0C0E07438
:100A490001141203FED0E0C0E074521203B6D0E0E4
:100A5900C0E074541203B6D0E0C0E0743D1203B68E
:100A6900D0E0E557540F44301203B6E556C4540F8D
:100A790044301203B6E556540F44301203B6C0E0B1
:100A890074201203B6D0E0C0E074201203B6D0E09F
:100A9900C0E074741203B6D0E0C0E0743D1203B62E
:100AA900D0E0E559540F44301203B6E558C4540F49
:100AB90044301203B6E558540F44301203B6C0E06F
:100AC90074201203B6D0E0C0E074201203B6D0E05F
:100AD900D0E022C0E0C0F0C000C0E07408141204E5
:100AE90000D0E0C083C082C0E09009991203F3D01E
:100AF900E0D082D083E561121115120405C0E074BB
:100B09003A1203B6D0E0E560121115120405D000BF
:100B1900D0F0D0E022C0E0C0F0C000C001C007C0E2
:100B2900E07407141203FED0E0C0E074201203B68B
:100B3900D0E0C083C082C0E090099E1203F3D0E0E8
:100B4900D082D083E55F75F03C84AFF012111512A5
:100B59000405C0E0743A1203B6D0E0EF1211151281
:100B69000405D007D001D000D0F0D0E022C0E07455
:100B79000114120400D0E0E568B40013C083C082F8
:100B8900C0E090002A1203F3D0E0D082D08322E59E
:100B990068B40113C083C082C0E09000321203F32D
:100BA900D0E0D082D08322E568B40213C083C0822A
:100BB900C0E090003A1203F3D0E0D082D08322E55E
:100BC90068B40313C083C082C0E09000421203F3EB
:100BD900D0E0D082D08322E568B40413C083C082F8
:100BE900C0E090004A1203F3D0E0D082D08322E51E
:100BF90068C083C082C0E09000521203F3D0E0D0F5
:040C090082D08322F0
:100C0D007BF9FAD6F9FAE3FBFA0000FA0000C8D630
:100C1D00F9FAE3FBFAE3FB960000640000FAE3FB4C
:100C2D00FA61FBFAD0FAFA82FAFA61FBFAD0FAFA13
:100C3D0082FAFAD6F9FAE3FBFA0000FA0000C8D6F8
:100C4D00F9FAE3FBFAE3FB960000640000FAE3FB1C
:100C5D00FA61FBFAD0FAFA82FAFA61FBFAD0FAFAE3
:100C6D0082FAFAD6F9FA00000AD6F9F00000FAEB8A
:100C7D00FCFA0000FA8AFCFA0000FAE3FBFA1DFC0C
:100C8D00FA8AFCFA0000FA61FBFA0000FA1FFBFA7F
:100C9D000000FA000096E3FBFA61FBFAD0FAFA8243
:100CAD00FAFA61FBFAD0FAFA82FAFAD6F9FA82FA6E
:100CBD00FA00000A82FAF000000A82FAF0D0FAFA7D
:100CCD0061FBFA61FBFAE3FBFAA7FBFAE3FBFAA778
:100CDD00FBFAE3FBFA41FDFA61FBFAD0FAFAD6F919
:100CED00FA0000FA0000FAA2F5FAC5F7FAD6F9FAF9
:100CFD0082FAFA0000FA0000FAC5F7FA7BF9FA82D7
:100D0D00FAFAD0FAFA0000FA0000FAC5F7FAE3FB96
:100D1D00FAA7FBFAE3FBFAA7FBFAE3FBFA41FDFAAC
:100D2D00A7FBFAD0FAFAD6F9FA0000FA0000FAA2F7
:100D3D00F5FAC5F7FAD6F9FA82FAFA0000FA0000C8
:100D4D00FAC5F7FAD0FAFA82FAFAD6F9FA0000FAE9
:100D5D000000FAD205D206753200900C0D753300E5
:100D6D00E493F531A3E493F530A3E493F533A3C0F5
:100D7D0002AA33120371D0020532E532B442E1C248
:100D8D0005C20622D205D206753200900CD37533FA
:100D9D0000E493F531A3E493F530A3E493F533A385
:100DAD00C002AA33120371D0020532E532B430E12C
:100DBD00C205C20622E569B40005120E1D8050B4AD
:100DCD000905120F1F8048B40A05120F808040B428
:100DDD000105120E9F8038B40207D2E9120EAF80C2
:100DED002EB40305120EBF8026B40405120ECF805B
:100DFD001EB40505120EDF8016B40605120EEF8027
:100E0D000EB40705120EFF8006B40803120F0F2251
:100E1D00C2AFC0E0740A14120400D0E0C083C082D7
:100E2D00C0E090006A1203F3D0E0D082D083C0E01E
:100E3D00740414120400D0E0C0E074201203B6D084
:100E4D00E0D2AFD2E87F001205485045EF540FB401
:100E5D000107D2E97569018038B40207D2EA7569D4
:100E6D0002802EB403057569038026B404057569E7
:100E7D0004801EB405057569058016B406057569EF
:100E8D0006800EB407057569078006B408037569F9
:100E9D0008227563D075640775652D7566007569D3
:100EAD0009227563DC75640575651E7566007569C7
:100EBD0009227563F4756401756578756600756949
:100ECD0009227563087564077565B47566007569E3
:100EDD0009227563347564087565F075660075696A
:100EED00092275632075640375653C756600756927
:100EFD00092275638475640375655A756600756995
:100F0D0009227563E8756403756578756600756902
:100F1D000922C2AFC0E0740A14120400D0E0C083ED
:100F2D00C082C0E090005A1203F3D0E0D082D0838B
:100F3D00D2AF854A30854B31854C32854D33856333
:100F4D0034856435753600753700C2AF12015ED237
:100F5D00AF200004C2808002D280300915C209057D
:100F6D0067E567B4040C7567001565E56570037575
:100F7D00690A22C0E0740A14120400D0E0C083C0D4
:100F8D0082C0E09000621203F3D0E0D082D083C221
:100F9D008075690022C2AF120548D2AF500280039E
:100FAD00021077120491EFD205D206B4010F7530FD
:100FBD00F57531A2C0027A64120371D002B4020F2A
:100FCD007530F67531C3C0027A64120371D002B464
:100FDD00030F7530F77531C5C0027A64120371D0F5
:100FED0002B4040F7530F875313BC0027A641203F8
:100FFD0071D002B4050F7530F9753114C0027A64E1
:10100D00120371D002B4060F7530F97531D6C002D6
:10101D007A64120371D002B4070F7530FA753182FC
:10102D00C0027A64120371D002B4080F7530FA75DC
:10103D0031D0C0027A64120371D002B4090F753039
:10104D00FB753161C0027A64120371D002B4000FD6
:10105D007530FB7531E3C0027A64120371D002C2A0
:0B106D0005C206C2AF12042BD2AF2256
:10107800E58954F04401F589758CF5758A68D2A91B
:10108800D28C2220060CC28C758CF5758A68D28C9D
:10109800800AC28C85308C85318AD28C300505B2A5
:1010A800840210D7055DE55DB4FA24D203D20905A0
:1010B8005E755D00E55EB40416D208755E00200416
:1010C8000E055F0560E560B43C050561756000329A
:1010D800C0F9A4B0999282F880909010D8E8C454CE
:1010E8000F93F592E8540F93F591229010D8E8C425
:1010F800540F93F594E8540F93F593229010D8E881
:10110800C4540F93F58FE8540F93F58E2275F0644D
:1011180084F9E5F075F00A84C454F045F0F82275B6
:1011280091FF7592FF7593FF7594FF758EFF758F0C
:10113800FF22855038855139753A00753B001200F9
:10114800BF75348275350075360075370012015E3B
:101158003000157530827531007532007533001214
:101168000072853850853951855038855139753A1E
:1011780000753B001200BF7534AA7535007536003E
:1011880075370012017A3000157530AA753100756F
:1011980032007533001200728538508539518552F6
:1011A80038855339753A00753B001200BF75343CD9
:1011B80075350075360075370012015E30001575FB
:1011C800303C753100753200753300120072853875
:1011D80052853953855238855339753A00753B0025
:1011E8001200BF75347875350075360075370012F2
:1011F800017A300015753078753100753200753315
:10120800001200728538528539538556388557390A
:10121800753A00753B001200BF7534E675350075E8
:10122800360075370012015E3000157530E67531ED
:1012380000753200753300120072853856853957AB
:10124800855638855739753A00753B001200BF75C9
:1012580034F075350075360075370012017A3000A4
:10126800157530F075310075320075330012007253
:10127800853856853957855838855939753A0075EE
:101288003B001200BF75341E753500753600753782
:101298000012015E30001575301E75310075320080
:1012A8007533001200728538588539598558388544
:1012B8005939753A00753B001200BF75342D7535E4
:1012C8000075360075370012017A30001575302D1B
:1012D80075310075320075330012007285385885F3
:1012E800395922C2AF1210781207801203C07581D3
:1012F8007F75E800759500756800C280C200C2015C
:10130800D202D203D209D204C205C206D207C20849
:10131800756100756000755E007550007551007547
:101328005200755300755600755700755800755969
:1013380000754A00754B00754C00754D00755C00D2
:1013480075630075640075650075660075670075DE
:101358006900C2AF12050B12053BD2AFD2AF22759E
:101368009ABB759B821212EB75620075A1801204FC
:10137800D774401203BB74001203B674041203B688
:1013880074061203B674041203B674041203B67416
:101398000C1203B6740C1203B674001203B6740070
:1013A8001203B674001203B6740F1203B67409124E
:1013B80003B674091203B6741B1203B6741B120326
:1013C800B674001203B6C0E0740114120400D0E031
:1013D800C083C082C0E09000191203F3D0E0D0822D
:1013E800D083C0E07401141203FED0E0C083C08231
:1013F800C0E09000191203F3D0E0D082D08330030C
:10140800028003021544C203C2AF75A10075330000
:1014180075320085A33185A230753488753513750A
:1014280036007537001201D07534007535107536E1
:10143800007537001202C485304285314385324435
:1014480085334575A10175330075320085A3318553
:10145800A23075348875351375360075370012015A
:10146800D07534007535107536007537001202C412
:1014780075340A7535007536007537001202C47563
:10148800341175350175360075370012013A85300B
:101498004685314785324885334985423085433111
:1014A8008544328545337534107535277536007592
:1014B80037001201D075340C753530753600753724
:1014C800001202C48530348531358532368533378C
:1014D800854630854731854832854933C034C03523
:1014E800C036C03775340A75350075360075370053
:1014F8001201D0D037D036D035D03412011785300C
:101508004A85314B85324C85334DC038C039C03A95
:10151800C03BC03C1200722004031207A430070D20
:10152800C0E07401141203FED0E01207C8120824A8
:10153800D03CD03BD03AD039D038D2AF3004282074
:1015480086251204D71204D720861C3086FD056232
:1015580012112775E8001212EBE562B403097562EF
:10156800001204D71204D7E562B401028003021600
:1015780007120FA2C2AFC0E0740114120400D0E039
:10158800C083C082C0E09000191203F3D0E0D0827B
:10159800D083C0E07401141203FED0E0C083C0827F
:1015A800C0E09000191203F3D0E0D082D083C0E0ED
:1015B800740614120400D0E0C0E074001203B6D020
:1015C800E0C0E07408141203FED0E0C0E07400121A
:1015D80003B6D0E0C0E0740914120400D0E0C0E003
:1015E80074011203B6D0E0C0E07403141203FED0F5
:1015F800E0C0E074011203B6D0E0D2AF021406E5F1
:1016080062B4020280030216D5120DC22082511262
:1016180004D720824B3082FDD2051204D71204D79A
:10162800C205756500756600C2AFC0E07403141288
:101638000400D0E0C0E074301203B6D0E0C0E0741B
:10164800201203B6D0E0C0E074201203B6D0E0C088
:10165800E074201203B6D0E0D2AF75670075690058
:10166800300867856330856431753200753300C290
:10167800AF120072C0E0740114120400D0E0120727
:10168800C885653085663175320075330012007281
:10169800C0E0740A141203FED0E0C0E074741203B0
:1016A800B6D0E0C0E0743D1203B6D0E0E539540F7F
:1016B80044301203B6E538C4540F44301203B6E57B
:1016C80038540F44301203B6D2AF02140620954F97
:1016D8001204D72095493095FDC0E0740114120416
:1016E80000D0E0C083C082C0E09000191203F3D09C
:1016F800E0D082D083C0E07401141203FED0E0C0B1
:1017080083C082C0E09000191203F3D0E0D082D0E9
:1017180083B207D208D2051204D71204D7C2053003
:10172800081FC20830070DC2AF120ADC120B1E12C6
:101738000B76D2AF20070AC2AF1209A3120A44D20D
:10174800AF2004192082161204D72082103082FD9F
:10175800D2051204D71204D7C205756800300216E4
:10176800C202C2AF755F00120B76D2AFD205120467
:10177800D71204D7C20575E800E568B400028003F3
:101788000217D3756100756000D2E8C280D204C226
:10179800AF12054812042B5003120491D2AF20E86F
:1017A8001120820B1204D72082053082FD800302AB
:1017B8001A82121127C2AF12113A1208D1D2AF758C
:1017C8005C00D202C2040568021A82E568B401020C
:1017D8008003021878D2E9D280C2AF75303C7531E7
:1017E80000753200753300855F3475350075360035
:1017F80075370012017A300023C200854A30854BC4
:1018080031854C32854D3375343275350075360067
:1018180075370012015E300003756800C2008550FC
:1018280038855139753A00753B00753C001200BF88
:1018380075340A7535007536007537001201D08584
:101848003034853135853236853337854A30854B96
:1018580031854C32854D33C20012017AD2AF20E96E
:10186800083000028003021A82D2020568021A8236
:10187800E568B402028003021929D2EAC2AF855290
:1018880038855339753A00753B00753C001200BF26
:1018980085305485315575301475310075320075B1
:1018A800330085523485533575360075370012017B
:1018B800D07534647535007536007537001202C46A
:1018C80085304E85314F855F307531007532007532
:1018D8003300854E34854F35753600753700C200A4
:1018E80012017AD2AF300004C2808002D280C2AF27
:1018F800855F307531007532007533008554348545
:101908005535753600753700C20012017AD2AF20FE
:10191800EA083000028003021A82D2020568021A1D
:1019280082E568B40358D2EBD280C2AF85563885B9
:101938005739753A00753B00753C001200BF753485
:101948000A7535007536007537001201D0853034B8
:10195800853135853236853337854A34854B35852B
:101968004C36854D37C20012017AD2AF20EB0820E1
:1019780000028003021A82D2020568021A82E56810
:10198800B404028003021A32D2ECC2AF85583885FB
:101998005939753A00753B00753C001200BF853017
:1019A8005A85315B75301475310075320075330016
:1019B800855A34855B357536007537001201D07548
:1019C80034647535007536007537001202C48530E9
:1019D8004E85314F855F30753100753200753300A3
:1019E800854E34854F35753600753700C2001201B3
:1019F8007AD2AF300004C2808002D280C2AF855A4A
:101A080030855B31753200753300855F347535007C
:101A1800753600753700C20012017AD2AF20EC0388
:101A2800200057D2020568021A82E568B4054BD235
:101A3800EDC280C2AF854A30854B31854C32854D29
:101A480033753458753502753600753700C2001283
:101A5800015ED2AF20ED03300020D202756800C0CD
:101A6800E07401141203FED0E0300703120D602069
:0D1A78000703120D9174301207910214063D
:00000001FF
