:030000000204AD4A
:10000300C28E53890F438920758DFB758BFB7598C1
:1000130052D28E22758920758DFDD28ED29FD29EAB
:10002300D29CC299C298223099FDC299F59922E4D3
:0A00330093600612002AA380F62253
:10003D00C0E0C0D0C000C001C002C033C032C0316A
:10004D00C030E4F538F539F53AF53BF53C7A20E565
:10005D0033A2E779047830E633F608D9FA790578D2
:10006D0038E636D4F608D9F9DAE5D030D031D032C9
:10007D00D033D002D001D000D0D0D0E022C0E0C02B
:10008D00D0C000C001C002C03CC03BC03AC039C0A6
:10009D00387A207905C3783CE613C0D030E70224C6
:1000AD00D030E30224FDF618D0D0D9EC79047833A2
:1000BD00E613F618D9FADADBD200E5387002C20081
:1000CD00D038D039D03AD03BD03CD002D001D0007E
:1000DD00D0D0D0E022C0E0C0D0E5302534F530E5F9
:1000ED00313535F531E5323536F532E5333537F520
:1000FD00339200D0D0D0E022C0E0C0D0C3E530951F
:10010D0034F530E5319535F531E5329536F532E595
:10011D00339537F5339200D0D0D0E022C0E0C0D077
:10012D00C3E5309534E5319535E5329536E53395B2
:10013D00379200D0D0D0E022C0E0C0D0C3E53495D6
:10014D0030E5359531E5369532E53795339200D06A
:10015D00D0D0E022C0E0C0D0C200C3E534953070ED
:10016D0014E5359531700EE53695327008E5379505
:10017D00337002D200D0D0D0E022120161200003F2
:10018D000201452212016120000302012922C0E073
:10019D00C0F0C0D0C000C001C002C003C004C00583
:1001AD00E5308534F0A4F8A9F0E5318534F0A429C3
:1001BD00F9E435F0FAE5308535F0A429F9E5F03AA2
:1001CD00FAE433FBE5328534F0A42AFAE5F03BFB83
:1001DD00E5318535F0A42AFAE5F03BFBE5308536AF
:1001ED00F0A42AFAE5F03BFBE5338534F0A42BFBB4
:1001FD00ACF07D00E5328535F0A42BFBE5F03CFC41
:10020D00E43DFDE5318536F0A42BFBE5F03CFCE447
:10021D003DFDE5308537F0A42BFBE5F03CFCE43DDE
:10022D00FDEC4DFCE5338535F0A445F04CFCE53295
:10023D008536F0A445F04CFCE5318537F0A445F04A
:10024D004CFCE5338536F0A445F04CFCE5328537A2
:10025D00F0A445F04CFCE5338537F0A445F04CFC9B
:10026D008B338A3289318830D200BC0002C200D073
:10027D0005D004D003D002D001D000D0D0D0F0D022
:10028D00E022C0E0C0D0C000C001C002C003C00465
:10029D00E5344535453645377005D2000202FAC2C0
:1002AD00007C20E4F8F9FAFBC3E53033F530E53195
:1002BD0033F531E53233F532E53333F533E833F8E1
:1002CD00E933F9EA33FAEB33FBC3E89534E99535B5
:1002DD00EA9536EB95374013E89534F8E99535F9FD
:1002ED00EA9536FAEB9537FB433001DCBBD004D0F1
:1002FD0003D002D001D000D0D0D0E022853034859B
:10030D00313585323685333722E530C534F530E564
:10031D0031C535F531E532C536F532E533C537F53D
:02032D00332279
:10032F00C00078BE00000000D8FAD00022C000C084
:10033F0001793278DFD8FED9FADAF6D001D000226F
:10034F00D29112032FC29112032F22A2E79281A200
:10035F00E69283A2E59285A2E4928712034FA2E36D
:10036F009281A2E29283A2E19285A2E09287120388
:10037F004F22D29702035AC29702035AC291C00268
:10038F007A2812033CD0027433120386743312039B
:10039F008674321203867428120386740C12038635
:1003AF007401120386C0027A0212033CD00222E4C7
:1003BF00936006120381A380F62244404480020317
:1003CF0086C0E0E8C4540F4430120381E8540F4450
:1003DF0030120381D0E022C0F9A4B0999282F88044
:1003EF00908883C6A1868E781E794A7AFADAFED96A
:1003FF00FAD8F6229003E6E539C4540F93F594E545
:10040F0039540F93F593E538C4540F93547FF592F5
:10041F00E538540F93F59122C0E07401141203C90B
:10042F00D0E07454120381743D120381E539C45432
:10043F000F4430120381E539540F4430120381E524
:10044F0038C4540F4430120381742E120381E538DF
:10045F00540F443012038122E539C4540F44301233
:10046F00002AE539540F443012002AE538C4540FDE
:10047F00443012002A742E12002AE538540F4430EB
:10048F0012002A740D12002A740A12002A22546DC7
:10049F00706572617475726520546573740075812F
:1004AF007FE4F5E8F595120003759AAA759B821201
:1004BF00038BC0E07401141203CBD0E0C083C08261
:1004CF00C0E090049D1203BED0E0D082D083900490
:1004DF009D120032740D12002A740A12002A75A19F
:1004EF00801203F6E5E85407FFF5A1753300753266
:1004FF000085A33185A230753488753513753600A4
:10050F0075370012019B75340075351075360075FF
:10051F00370012028F85303D85313E85323F85335E
:10052F0040EF045407F5A175330075320085A331F0
:10053F0085A23075348875351375360075370012FE
:10054F00019B753400753510753600753700120232
:10055F008F75340A75350075360075370012028FA6
:10056F007534117535017536007537001201058523
:10057F003041853142853243853344853D30853E58
:10058F0031853F3285403375341075352775360008
:10059F0075370012019B75340C7535307536007543
:1005AF00370012028F8530348531358532368533E9
:1005BF0037854130854231854332854433C034C05D
:1005CF0035C036C03775340A753500753600753746
:1005DF000012019BD037D036D035D0341200E21242
:1005EF00003D1204031204271204677F141203F64E
:0505FF00DFFB0204F324
:00000001FF
